:020000040800F2
:100000007816002099010008D32D0008F12100087E
:10001000D12D0008D10B0008D534000800000000E5
:1000200000000000000000000000000001010008C6
:10003000D30B00080000000045010008892F0008CC
:10004000B3010008B3010008B3010008B3010008C0
:10005000B3010008B3010008B3010008B3010008B0
:10006000D50B0008B3010008B3010008B301000874
:10007000B3010008B3010008B3010008B301000890
:10008000B3010008B3010008B3010008B301000880
:10009000B3010008B3010008B3010008DB0B00083E
:1000A000B3010008B3010008B3010008B301000860
:1000B000B3010008B3010008B3010008B301000850
:1000C000B3010008B3010008B3010008B301000840
:1000D000B3010008B3010008B3010008753400083B
:1000E000B3010008B3010008B3010008DFF80CD029
:1000F00000F0E0FC00480047895600087816002010
:10010000224B19680868B0E8F00F80F30988BFF344
:100110006F8F4FF0000080F311884EF00D0E704786
:100120000000000006480068006880F3088862B696
:1001300061B6BFF34F8FBFF36F8F00DF00BF00BF0B
:1001400008ED00E0EFF30980BFF36F8F0F4B1A68E3
:1001500020E9F00F106008B54FF0500080F31188CF
:10016000BFF34F8FBFF36F8F06F0E2FF4FF0000039
:1001700080F31188BDE8084019680868B0E8F00FFE
:1001800080F30988BFF36F8F704700BF1000002015
:10019000EFF3058070470000064880470648004797
:1001A000FEE7FEE7FEE7FEE7FEE7FEE7FEE7FEE727
:1001B000FEE7FEE7FF2F0008ED0000082DE9F04103
:1001C0000024061B254671F1000605DA01240027EC
:1001D000D0EB070067EB0101161E73F1000605DA8C
:1001E0000027D2EB0702012567EB030300F034FB85
:1001F00086460E4617469C46AC4204D00025D0EBFE
:10020000050E65EB010624B10020D2EB000760EB80
:10021000030C704631463A466346BDE8F081202A19
:1002200004DB203A21FA02F00021704721FA02F3A0
:10023000D040C2F12002914008431946704740EA7D
:1002400001039B0703D009E008C9121F08C0042A54
:10025000FAD203E011F8013B00F8013B521EF9D23B
:100260007047D2B201E000F8012B491EFBD2704763
:100270000022F6E710B513460A4604461946FFF772
:10028000F0FF204610BD30B504460020034600E0D4
:100290005B1C934203D2E05CCD5C401BF8D030BDC8
:1002A000F0B480EA0102D40F4200B2EB410F02D257
:1002B0000246084611464A0042D0C30DDDB2C1F3E2
:1002C000C752AD1A202D35DAC1F3160141F40002F0
:1002D00004B15242C5F1200602FA06F12A41104447
:1002E000B3EBD05F23D0C4B1012DA0EBC35009DC28
:1002F000F0BC4FF0004202EAC352DBB200F500004E
:1003000000F005BB400000F1807000EBC350A0F18D
:10031000807040EAD170490009E0490841EAC071A3
:10032000A0EBC35000F50000400800EBC350F0BC48
:1003300000F0E4BA6142012202EB4101001BF6E742
:10034000F0BC704781F00041AAE780F00040A7E7C9
:1003500080EA010210B502F00043400022D04A00BA
:100360001FD0010E01EB1261C0F35600C2F356021A
:1003700040F4000042F40002A0FB022000047F3998
:10038000140400D0401C50EA124001D44000491E21
:10039000C2B20C0604EBD010401C4008802A02D0E8
:1003A00003E0002010BD20F00100002900DA002049
:1003B000184310BD30B480EA010202F0004530F06D
:1003C000004221F0004013D090B1C30DD40DC2F310
:1003D0001601C0F31600E41A41F4000140F40002D3
:1003E0007D34914201D3641C00E04900002C02DA04
:1003F00030BC002070474FF400000023914201D32D
:10040000891A034340084FEA4101F7D151B19142A3
:1004100002D14FF0004105E002D24FF0010101E0AE
:100420006FF0010103EBC450284430BC00F066BA01
:10043000420005D0C0F3C7525242914201DC002075
:10044000704700EBC15070472DE9FE4F804681EAAE
:100450000300C00F0C46009021F0004123F000453E
:10046000B8EB0200A94105D24046214690461C4601
:100470000B46024623F00040104347D0270DC7F338
:100480000A00C3F30A510290401A019040286BDA27
:10049000C3F3130040F4801B0098924620B1002360
:1004A000D2EB030A63EB0B0B01985946C0F14002F3
:1004B000504600F002FA06460D4650465946019A4B
:1004C00000F00AFA10EB08006141002487EA11529B
:1004D00084EAE7731A4340D0009A62B3019A012A72
:1004E0004FEA075215DC001B61EB02014FF000429E
:1004F00002EA0752CDE90042001C41F58011324664
:100500002B4600F041FA03B0BDE8F08F404621468B
:10051000F9E7001B61EB0201001C41F58013001894
:100520005B412018A2F5001747EB030140EAD570A4
:10053000B6196D4111E06D084FEA360645EAC075FF
:100540004FEA0752001B61EB0201001C41F58011CC
:1005500049084FEA30000019514132462B4603B09A
:10056000BDE8F04F00F001BA0098012240000023DE
:10057000D0EB020263EBE073009821464FEAE0748F
:10058000B8EB000061EB0401E9E783F000435BE7AF
:1005900081F0004158E72DE9FE4F81EA030404F0A1
:1005A000004421F0004100944FF0000B23F0004381
:1005B00050EA01045ED052EA03045BD0C3F30A544C
:1005C000C1F30A552C44A4F2F3340194A0FB025465
:1005D000C1F3130141F48011C3F3130343F48013F7
:1005E00001FB024400FB034E840A970A44EA81544B
:1005F00047EA8357A4FB076802958D0A05FB078528
:100600004FEA932C04FB0C542705029D4FEA065831
:1006100047EA1637B5EB08056EEB070C870E920E0E
:1006200047EA811742EA8312A7FB0201B6EB0B01EE
:1006300064EB00042B0D43EA0C335E1844EB1C50B2
:10064000DA465146E7FB0201C5F313044FEA0B33C8
:1006500043EA14534FEA0432019C43EA0603A4F12F
:100660000C040294009CCDE900B400F08DF903B0B5
:10067000BDE8F08F00200146F9E72DE9F04D81EA51
:10068000030404F0004B21F0004514464FF0000A2B
:1006900023F0004150EA050220D054EA01021DD0A7
:1006A000C5F30A570246C5F31303C1F31300C1F3A0
:1006B0000A5640F4801543F48013A7EB0608101B7C
:1006C000D64608F2FD3873EB050002D308F10108A5
:1006D00001E092185B41B8F1000F03DA00200146F7
:1006E000BDE8F08D00204FF48011064684460EE0F0
:1006F000171B73EB050705D3121B63EB05030643BA
:100700004CEA010C49084FEA300092185B4150EA6C
:100710000107EDD152EA030012D082EA040083EA15
:100720000501084305D0101BAB4106D2012200236E
:1007300006E000224FF0004302E06FF00102531088
:100740001AEB06004CEB085110EB0A0041EB0B01D1
:10075000BDE8F04D00F009B9C10F80EAE07008442F
:10076000CA079623002100F0D2B896230022114632
:1007700000F0CDB800F0004220F00040C10DC0F301
:10078000160040F400007F2901DA00207047962906
:1007900003DCC1F19601C84001E096398840002A87
:1007A000F4D04042704720F00040C10DC0F3160065
:1007B00040F400007F2901DA00207047962903DC0D
:1007C000C1F19601C840704796398840704700F0E3
:1007D000004230F000400AD0C10D01F56071C0F355
:1007E000160042EA0151C208400711437047002039
:1007F0000146704701F0004330B421F0004150EA57
:10080000010206D00A0DA2F56072C1F31301002A9D
:1008100002DC30BC00207047440F44EAC104C10030
:10082000E01830BC00EBC25000F068B830B50B46A1
:10083000014600202022012409E021FA02F59D4210
:1008400005D303FA02F5491B04FA02F52844151EE4
:10085000A2F10102F1DC30BD2DE9F05F0546002078
:1008600092469B4688460646814640241BE0284621
:10087000414647462246FFF7D2FC53465A46C01A25
:10088000914110D311461846224600F016F82D1A51
:1008900067EB01084F4622460120002100F00DF8C9
:1008A00017EB00094E41201EA4F10104DFDC48468D
:1008B00031462A464346BDE8F09F202A04DB203A11
:1008C00000FA02F1002070479140C2F1200320FAA3
:1008D00003F3194390407047202A06DBCB17203AD8
:1008E00041FA02F043EAE07306E041FA02F3D04035
:1008F000C2F1200291400843194670470029A8BF61
:100900007047401C490008BF20F00100704710B438
:10091000B0FA80FC00FA0CF050EA010404BF10BCED
:10092000704749B1CCF1200421FA04F411FA0CF11A
:1009300018BF012121430843A3EB0C01CB1D4FEA53
:1009400000614FEA102042BF002010BC704700EB4E
:10095000C35010440029A4BF10BC7047401C49007C
:1009600008BF20F0010010BC704710B5141E73F1D1
:10097000000408DA401C41F1000192185B411A435F
:1009800001D120F0010010BD2DE9F04D92469B46AB
:1009900011B1B1FA81F202E0B0FA80F22032904651
:1009A000FFF78BFF04460F4640EA0A0041EA0B01BD
:1009B00053465A46084313D0114653EA010019D052
:1009C000C8F140025046FFF72AFC05460E46504645
:1009D00059464246FFF771FF084305D0012004E065
:1009E00020463946BDE8F08D0020054346EAE07612
:1009F0002C4337430A986305E40AA0EB0800002261
:100A0000FD0A44EA47540A3002D500200146E9E7CE
:100A1000010510196941DDE9084500196941BDE882
:100A2000F04DA2E770B521F0004303430CD0C1F3B1
:100A30000A550024D5EB040564EB0403D617AD1A60
:100A4000B34102DB0020014670BD201841EB02518A
:100A500070BDC1F30A52C1F3130140F2FF3341F4F8
:100A600080119A4202DA00200146704740F2334377
:100A70009A42A2F2334202DC5242FFF7D0BBFFF7A8
:100A80001CBF000030B5041E71F1000404DB4FF000
:100A90000044404264EB0101141E73F1000405DBC5
:100AA0001C464FF00043524263EB0403994208BFD7
:100AB000904230BD064C074D06E0E06840F001036F
:100AC00094E8070098471034AC42F6D3FFF712FBC6
:100AD00068920008889200082DE9F04D00231A461C
:100AE0001B1A8A4103DB00200146BDE8F08DC1F3EB
:100AF0000A52C1F3130141F480154FF0000BD107E6
:100B000002D100186D41521E0027044640F2FF1129
:100B1000384601EB620A3E468046024600204FF40A
:100B20008011FFF77CFBC2197141BB1846EB010035
:100B3000B4EB030C75EB000C04D3E41A65EB000571
:100B400017460E46241908F101006D4180463428ED
:100B5000E3DDF91946EB0600091BA84103D24FF06B
:100B6000FF32134601E0002213461BEB070046EB61
:100B70000A51BDE8F04DFFF7F8BE70B58C1810F8BB
:100B8000015B15F0070301D110F8013B2A1106D1D2
:100B900010F8012B03E010F8016B01F8016B5B1EEC
:100BA000F9D12B0705D40023521E0DD401F8013BC7
:100BB000FAE710F8013BCB1A921C03E013F8015B33
:100BC00001F8015B521EF9D5A142D8D3002070BDB7
:100BD000FEE77047042000F089B8202000F086B8B6
:100BE00072B6FEE710B590F821100022022905D058
:100BF0000421816380F82020012010BD01680B686A
:100C000023F00E030B6001680B6823F001030B60F7
:100C100090F84030C46B012101FA03F3636080F85F
:100C2000211080F82020104610BD000010B590F86B
:100C300021100024022903D00421816301243DE016
:100C400001680A6822F00E020A6001680A6822F050
:100C500001020A601A4A0168914201D1012121E092
:100C6000174A1432914201D110211BE0144A283254
:100C7000914201D1891515E0114A3C32914201D1CE
:100C800089140FE00E4A5032914202D14FF4803164
:100C900008E00B4A6432914202D14FF4801101E026
:100CA0004FF08071064A083A5160012180F8211006
:100CB000002180F82010416B01B18847204610BD0B
:100CC0000800024070B5044600F016F90546601CA5
:100CD00002D004480078044400F00EF9401BA04202
:100CE000FAD370BD0400002070470000044910B51D
:100CF0000A68024202D00860FFF7F6FF10BD00004C
:100D0000140401402DE9F84FDFF8B8910024A9F14F
:100D1000040B23460F2709F1040AABF1040EC9E0C6
:100D20000125A5402A40AA427DD1674ED1F804C0D2
:100D3000ACEB0608B44532D014DCBCF1030F3AD05A
:100D400009DCBCF1000F2AD0BCF1010F1CD0BCF1B2
:100D5000020F31D11DE0BCF1110F17D0BCF1120F01
:100D60002AD119E0B8F5881F19D006DCB8F5803F04
:100D700015D0B8F5801F1FD111E0B8F5001F0ED0B7
:100D8000B8F5041F18D10AE0CB6815E0CB681B1D2D
:100D900012E0CB6808330FE0CB680C330CE08B68B3
:100DA0002BB1012B4FF0080303D0456104E004236D
:100DB00002E0056100E00023FF2A01D8064601E0B9
:100DC00000F104064FEA840501D9A5F12005D6F803
:100DD000008007FA05FC28EA0C0803FA05F548EA42
:100DE0000508C6F800804D68ED0062D5374DAE6944
:100DF00046F00106AE61AD6924F0030605F0010579
:100E00000095334D06EB050CDCF80850A607360FAD
:100E100007FA06F825EA0805DFF8B880404503D14F
:100E20004FF0000817E044E0DFF8AC80404502D105
:100E30004FF001080FE0DFF8A480404502D14FF0E9
:100E4000020808E0DFF89880404502D14FF003081F
:100E500001E04FF0040808FA06F848EA0508CCF863
:100E600008804D68D9F80060ED024D4601D5164363
:100E700000E096432E604D68DAF80060AD025546FA
:100E800001D5164300E096432E604D68DBF8006004
:100E9000AD035D4601D5164300E096432E604D68D4
:100EA000DEF80060ED03754601D5164300E0964379
:100EB0002E60641C0D682A46E5407FF431AFBDE822
:100EC000F88F0000080401400000111000100240DB
:100ED0000000014000080140000C014000100140EA
:100EE000001401408068084000D0012070470AB11A
:100EF000016170470904FBE7014880687047000002
:100F00000400002070B5040025D094F83D000025B1
:100F100020B984F83C50204600F050F9242084F891
:100F20003D002068016821F001010160206801682E
:100F300041F4004101602068016821F40041016032
:100F400000F0A8FA4D4A6168914201D84C4900E08E
:100F50004C49884201D2012070BD4B492368B0FB47
:100F6000F1F15E6826F03F060E435E6063689342CF
:100F700006D94FF4967359434FF47A73B1FBF3F1EA
:100F80002368491C1E6A26F03F06314319626168D6
:100F9000914210D84900401EB0FBF1F2521CC2F33E
:100FA0000B02042A01D2042022E0B0FBF1F0401C25
:100FB000C0F30B001CE0A268F2B301EBC10303EB2A
:100FC0000116431EB3FBF6F35B1C43F480431B0581
:100FD00049D092B301EBC10202EB0111401EB0FBFC
:100FE000F1F0401CC0F30B0040F4804040F400409E
:100FF0002168CA694CF6FF739A431043C861D4E96B
:10100000071001432068026822F0C002114301600A
:10101000D4E9030101432068826848F2FF339A4310
:1010200011438160D4E9050108432168CA6822F0B0
:10103000FF021043C86001E00EE016E0206801687E
:1010400041F0010101602564202084F83D00256302
:1010500084F83E50002070BD01EB4106431EB3FBF7
:10106000F6F35B1CB3E70120C2E701EB4101401E30
:10107000B0FBF1F0401CC0F30B00B7E7A086010005
:1010800080841E0000093D0040420F002DE9FF4F03
:1010900083B09A46DDE9119793460446DDF8408017
:1010A000FFF72AFF054694F83D0020287FD1192339
:1010B000012240492046009501F032F9002876D1FE
:1010C00094F83C00012872D0012084F83C0020688C
:1010D0000168C90703D1016841F00101016020687E
:1010E000016821F400610160212084F83D00402066
:1010F00084F83E0000262664C4F82480A4F82A90D0
:10110000608D20852C48E062CDE9007553465A4633
:101110002046049901F084F870B930E02A46394637
:10112000204601F0A3F958B1206C042804D12068AE
:10113000016841F400710160012007B0BDE8F08F43
:10114000606A216800780861606A401C6062218DD5
:10115000491E89B22185628D521E628522685369BB
:10116000DB435B070BD469B100781061606A401CF7
:101170006062208D401E2085608D401E6085208D20
:101180000028CBD12A463946204601F09DF8002898
:10119000CAD154F83D0B016841F400710160202070
:1011A00004F81E09E67766770020C6E7FFE702200D
:1011B000C3E70000020010000000FFFF10B586B07A
:1011C0000021009101910291039100681349884226
:1011D00022D1134CA06940F00800A061A0696946C3
:1011E00000F0080004904FF440700090122001902D
:1011F000032003900B48FFF785FD0B48416841F041
:10120000E06141F002014160E06940F40010E061FA
:10121000E06900F40010049006B010BD00540040D6
:1012200000100240000C01400000014002488168AB
:10123000027811448160704704000020074810B50F
:10124000016841F010010160032000F07BF80F20DD
:1012500000F006F800F024F8002010BD0020024045
:1012600070B50D4D04464FF47A712878B1FBF0F05B
:101270000A490968B1FBF0F000F0E2FA48B9102C15
:1012800007D200222146501E00F03CF800206C607E
:1012900070BD012070BD000004000020000000208F
:1012A0000F4808B5816941F001018161816901F050
:1012B00001010091C16941F08051C161C069002202
:1012C00000F0805000900F21901E00F01BF80548A0
:1012D000416821F0E06141F00071416008BD00000B
:1012E0000010024000000140002809DB00F01F024E
:1012F000012191404009800000F1E020C0F8001178
:1013000070470000F0B40E4B1B680C46C3F3022379
:10131000C3F10705042D00D90425191D072901D2A1
:10132000002300E0DB1E012606FA05F1491E2140DC
:1013300099409E40761E16403143F0BC02F07EB9C3
:101340000CED00E0064900F0070208684FF6FF03C5
:10135000184040EA0220034A10430860704700002A
:101360000CED00E00000FA052DE9F0470F460500FE
:1013700061D0434E306800F00700B84209D23068AF
:1013800020F0070038433060306800F00700B842B2
:1013900051D128683B4C810712D5400703D56068BE
:1013A00040F4E06060602878000703D5606840F48E
:1013B000605060606068A96820F0F00008436060D9
:1013C0002878C00728D06868012810D02168022832
:1013D00010D0890700292EDA616821F0030101434A
:1013E0006160FFF789FD804641F288390DE0216890
:1013F0008903EFE78901EDE7FFF77EFDA0EB080128
:10140000494502D90320BDE8F0876068696800F0AB
:101410000C00B0EB810FEFD1306800F00700B8424C
:101420000BD9306820F0070038433060306800F096
:101430000700B84201D00120E5E72878400705D52C
:101440006068E96820F4E06008436060287800077D
:1014500006D56068296920F4605040EAC1006060E8
:1014600000F038F86168084AC1F30311515CC840C4
:101470000649086006480068FFF7F2FE0020C2E750
:101480000020024000100240987A0008000000206E
:10149000080000200448054900684968044AC1F36F
:1014A0000221515CC840704700000020001002403B
:1014B000A87A00080448054900684968044AC1F34D
:1014C000C221515CC840704700000020001002405B
:1014D000A87A00080E4A51680E4801F00C03042B4C
:1014E00011D0082B0FD10C48C1F38343C903C05C52
:1014F0000AD55168084AC1F34041921E515C054A21
:101500005043B0FBF1F07047044948437047000076
:101510000010024000127A00B27A000800093D0073
:101520002DE9F84F040070D02078C04DC00749D095
:101530006868C0F38100012807D06868C0F38100A3
:10154000022809D16868C00306D52868800339D508
:1015500060680028E7D035E06068B0F5803F0BD0C8
:1015600010B1B0F5A02F11D0286820F48030286089
:10157000286820F4802002E0286840F48030286049
:10158000606890B1FFF7B8FC06460AE0286840F4AE
:1015900080202860F0E700BFFFF7AEFC801B6428C6
:1015A00073D828688003F7D50CE0FFF7A5FC064642
:1015B00005E000BFFFF7A0FC801B6428F0D8286876
:1015C0008003F7D420789A4E80074FF001094FF03E
:1015D000000839D5686810F00C0F07D06868C0F3B0
:1015E0008100022809D16868C00306D428688007F2
:1015F00014D52069012808D110E02069B0B1C6F8DF
:101600000090FFF779FC074605E00AE1FFF774FC5C
:10161000C01B0228C4D828688007F7D528686169EC
:1016200020F0F80040EAC10028600DE0C6F8008014
:10163000FFF762FC074604E0FFF75EFCC01B0228D0
:1016400023D828688007F7D4207800072CD579485C
:10165000A169D9B1C0F80090FFF74EFC074604E03D
:10166000FFF74AFCC01B02280FD8686A8007F7D52D
:1016700071484FF4FA510068B0FBF1F0009000BFE0
:101680000098411E0091FAD20EE080E0C0F8008080
:10169000FFF732FC074604E0FFF72EFCC01B0228D0
:1016A00075D8686A8007F7D42078400760D5E86964
:1016B0000027C00008D4E86940F08050E861E8697C
:1016C000012700F0805000905C480168C90513D4E0
:1016D0000168834641F480710160FFF70DFC82468A
:1016E00006E000BFFFF708FCA0EB0A0064284ED814
:1016F000DBF80000C005F5D5E06801280AD008B184
:10170000052813D0286A20F001002862286A20F0FA
:10171000040002E0286A40F001002862E06841F21B
:10172000883B98B1FFF7E8FB82460BE0286A40F05F
:1017300004002862EEE700BFFFF7DEFBA0EB0A0122
:1017400059455AD8286A8007F6D50CE0FFF7D4FB34
:10175000824605E0FFF7D0FBA0EB0A0159454CD8C3
:10176000286A8007F6D41FB1E86920F08050E8614C
:10177000E06988B36968C1F38101022944D0022875
:10178000C6F8608004D0FFF7B7FB044638E034E0C9
:10179000FFF7B2FB074604E0FFF7AEFBC01B0228D1
:1017A0002BD828688001F7D4206AB0F5803F05D196
:1017B0006868A16820F4003008436860D4E9080133
:1017C0000843696821F4741108436860C6F86090A2
:1017D000FFF792FB044606E025E000BFFFF78CFB15
:1017E000001B022809D828688001F7D51BE000BF3C
:1017F000FFF782FB001B022802D90320BDE8F88F07
:1018000028688001F4D40EE00128F7D06868226AC5
:1018100000F48031914204D1616A00F47010884272
:1018200001D00120EAE70020E8E7000000100240B4
:10183000000042428004424200000020007000404C
:1018400010B5401EB0F1807F01D3012010BD4FF0D4
:10185000E02460610F21601701F0F0FE0020A0611C
:1018600007202061002010BD10B590F83C20012A0F
:1018700022D0012280F83C20CA688C6822F4407291
:1018800022434C6822F4806222430C6822F40062F6
:1018900022430C6922F4805222434C6922F4005204
:1018A0002243C969002322F480420A4301684A6442
:1018B00080F83C30002010BD022010BD70B590F8BB
:1018C0003C20012A26D0012480F83C40022280F8E6
:1018D0003D2003685A689D6822F070060A6832430A
:1018E0005A600D4B02689A4208D0B2F1804F05D081
:1018F0000A4B9A4202D00A4B9A4204D1496825F019
:1019000080031943916080F83D40002180F83C102D
:10191000084670BD022070BD002C0140000400404C
:101920000008004010B5040003D094F83D0010B149
:1019300007E0012010BD002084F83C00204600F0A4
:101940001FF8022084F83D00211D206801F058FB9B
:10195000012084F8460084F83E0084F83F0084F8B3
:10196000400084F8410084F8420084F8430084F881
:10197000440084F8450084F83D00002010BD0000BC
:1019800008B500680649884208D10648C16941F097
:101990000201C161C06900F00200009008BD0000B2
:1019A000000400400010024070B5044690F83C006E
:1019B0000025012817D0012684F83C60022084F815
:1019C0003D002068826822F0770222F47F42826024
:1019D0000868502838D00DDC20284FD005DC90B3A3
:1019E000102811D14AE0022070BD302846D040288E
:1019F0000AD13BE060282FD070280DD0B0F5805F71
:101A000003D0B0F5005F12D0012584F83D600020BE
:101A100084F83C00284670BDCB68D1E901212068DC
:101A200001F031FB2068816841F0770109E0CB6863
:101A3000D1E90121206801F026FB2068816841F48A
:101A400080418160E1E719E0CA684968206801F0D7
:101A5000CFFB5021206806E0CA684968206801F081
:101A6000D8FB6021206801F018FBCEE7CA684968FE
:101A7000206801F0BDFB40212068F4E722680146A0
:101A80001046F0E72DE9F0410D46040003D094F82C
:101A90003D0018B108E00120BDE8F081002084F885
:101AA0003C00204600F040F8022084F83D00206809
:101AB000816844F2070291438160211D206801F092
:101AC0009FFA226890689169166A2B68AF69034390
:101AD00040F20330814341EA0721A868EF690843D7
:101AE0004FF6FC418843E96840EA07200143286932
:101AF0002F6A000140EA0730084369686D6926F0E3
:101B0000220646EA0515294393602268906154F83D
:101B1000460B0162012004F81F09E0752076E0768B
:101B20002077A0750020B7E700B585B000210091AF
:101B300001910291039101681A48B1F1804F1BD0C5
:101B4000194A914216D1C16941F00401C161C169CC
:101B500001F004010491816941F00801816180690B
:101B6000694600F008000490C02000900F4800BFB4
:101B7000FFF7C8F805B000BDC16941F00101C161BE
:101B8000C16901F001010491816941F004018161A1
:101B90008069694600F00400049003200090044826
:101BA000E6E700000010024000080040000C014081
:101BB0000008014070B590F83E60044690F83F5030
:101BC00090F8423090F84320022021B104290ED031
:101BD000012E1BD114E0012E18D1012B16D184F84F
:101BE0003E0084F8420001220021206820E0012DFF
:101BF0000CD1012A0AD184F83F0084F8430014E094
:101C0000012D03D1012B01D1012A01D0012070BD8A
:101C100084F83E0084F83F0084F8420084F84300D2
:101C200001220021206801F021FA0122042120680C
:101C300001F01CFA2068016841F0010101600020F8
:101C400070BD000000B585B00021009101910291A6
:101C5000039100680B49884212D10B48816941F019
:101C6000040181618069694600F0040004904FF42A
:101C7000106000900220019003900448FFF742F8A2
:101C800005B000BD002C01400010024000080140DA
:101C900070B5044690F83C0000260D4601280FD090
:101CA000012084F83C006AB1042A1DD0082A2FD0F4
:101CB0000C2A3FD00126002084F83C00304670BD3D
:101CC000022070BD206801F0F1F92068816941F0BF
:101CD000080181612068816921F004018161206827
:101CE00081692A69114311E0206801F007FA206830
:101CF000816941F4006181612068816921F480611A
:101D00008161206881692A6941EA02218161D2E703
:101D1000206801F01FFA2068C16941F00801C16123
:101D20002068C16921F00401C1612068C1692A6984
:101D3000114311E0206801F039FA2068C16941F4CB
:101D40000061C1612068C16921F48061C1612068BE
:101D5000C1692A6941EA0221C161ACE710B50400FA
:101D600003D094F83D0010B107E0012010BD002021
:101D700084F83C00204600F01FF8022084F83D0063
:101D8000211D206801F03CF9012084F8460084F808
:101D90003E0084F83F0084F8400084F8410084F855
:101DA000420084F8430084F8440084F8450084F835
:101DB0003D00002010BD000008B5006806498842BB
:101DC00008D10648816941F400618161806900F4AD
:101DD0000060009008BD0000002C0140001002408F
:101DE00010B50446022249B104290ED0082913D0A7
:101DF00094F84100012816D0012010BD94F83E004F
:101E00000128F9D184F83E200FE094F83F00012822
:101E1000F2D184F83F2008E094F840000128EBD18B
:101E200084F8402001E084F841200122206801F07C
:101E30001DF90F492068884203D1426C42F40042E8
:101E400042642068884208D0B0F1804F05D009492B
:101E5000884202D00849884204D1816801F0070114
:101E6000062903D0016841F001010160002010BD86
:101E7000002C0140000400400008004070477047FB
:101E8000F8B5016804460868CA684B6910F00F0F7E
:101E90004FF0000559D003F0010602F49077374364
:101EA00065D0C10705D0D10503D5616C41F00101B2
:101EB0006164410705D5D90703D0616C41F0020187
:101EC0006164810705D5D90703D0616C41F0040135
:101ED0006164010707D502F02001314303D0616C32
:101EE00041F008016164616C00293AD0800604D594
:101EF000900602D5204601F0E4F920684069616C43
:101F0000C0F38010090700D460B3204601F0B2F995
:101F100020684069400621D52068143050E8001F31
:101F200021F0400140E80012002AF5D1E06BA8B191
:101F30006D494163E06BFEF779FE002811D0E06B3C
:101F4000416B01B0BDE8F040084783060FD593060A
:101F50000DD52046BDE8F84001F0B3B92046FFF7A3
:101F60008EFFF8BD2046FFF78AFF6564F8BD266B3B
:101F70002023012E7CD1C6067AD5D60678D50868EE
:101F80004868009048694FF00206400640D5E16B72
:101F9000086840680004000CE8D0A28D8242E5D9B0
:101FA000E085886920282DD020680C3050E8001F7B
:101FB00021F4807140E80012002AF5D12068143025
:101FC00050E8001F21F0010140E80012002AF5D17D
:101FD0002068143050E8001F21F0400140E8001252
:101FE000002AF5D184F84230256320680C3050E88F
:101FF000001F21F0100140E80012002AF5D1E06B2B
:10200000FEF7F0FD6663A08DE18D401A81B22AE0F3
:10201000A08DE18D401A81B2E08D0028A6D0002964
:10202000A4D022680C3252E8000F20F4907042E8ED
:102030000007002FF5D12068143050E8002F22F05F
:10204000010240E80027002FF5D184F842302563D3
:1020500020680C3050E8002F22F0100240E80023E6
:10206000002BF5D166632046FFF708FFF8BDFFE7B8
:1020700005062BD5150629D594F841002128F5D160
:10208000A068B0F5805F01D12069B0B1206A411C21
:102090002162216800784860E08C401E0004000C3A
:1020A000E084E3D12068C16821F08001C16020682C
:1020B000C16841F04001C160D8E7206A0088C0F3E0
:1020C00008004860206A801C2062E5E74006CDD504
:1020D0005006CBD5CA68204622F04002CA6084F878
:1020E000413000F084F8C1E76532000870B50400A3
:1020F00004D094F84100002510B106E0012070BD25
:1021000084F84050204600F023F8242084F8410051
:102110002068C16821F40051C160204601F032F905
:102120002068016921F4904101612068416921F032
:102130002A0141612068C16841F40051C1606564B1
:10214000202084F8410084F842006563002070BDBF
:1021500030B585B000240094019402940394006883
:10216000184988422CD11848C16941F48021C161C5
:10217000C16901F480210491816941F00801816104
:102180008069124D00F0080004904FF480600090C8
:10219000022001900320039069462846FEF7B2FD15
:1021A000E814CDE90004694628460294FEF7AAFD2A
:1021B000002205212720FFF7A5F82720FFF794F834
:1021C00005B030BD0048004000100240000C014046
:1021D00090F84230202B01D00220704721B11AB173
:1021E0000023036301F02AB901207047704770474C
:1021F000FEE701684A69D24352050FD46FF480624A
:102200004A61002140F8301F202242738173026925
:1022100042F0040202610173012070470020704700
:102220002DE9F843044600680D46DDE9089701688A
:102230009846164641F4807101604B4600224FF0EB
:1022400001112046009700F06BF848B12068006843
:10225000C00502D54FF4007020640320BDE8F88368
:10226000216805F0FE0008613B464A4615492046B4
:1022700000F09EF888B920684169806900903A466C
:102280004946204600F0F2F848B1206C042804D1F9
:102290002068016841F4007101600120DEE7F5B2B9
:1022A000B8F1010F09D02168300A08613A46494661
:1022B000204600F0DBF80028E7D120680561002007
:1022C000CCE700000200010070B516460D4604463A
:1022D0001EE02046FFF78DFF08B1012070BD681C8D
:1022E00016D0FEF709FE801BA84200D885B92068E9
:1022F0004069C04340070BD5002044F8300F20212F
:102300006173A073216941F0200121612073E4E72A
:1023100020684069C0434007DBD4002070BD000046
:102320002DE9F047984617460D460446C1F3074687
:10233000DDF820902AE000BFB8F1FF3F26D0FEF77D
:10234000DBFDA0EB0901414502D8B8F1000F1DD11A
:102350002068012E16D0806925EA00000004000CD8
:1023600012D00020B84211D1002044F8300F2021B3
:102370006173A073216941F0200121612073012064
:10238000BDE8F0874069E7E70120EBE72068012E10
:102390000AD0806925EA00000004000C06D0002065
:1023A000B842C9D00020EBE74069F3E70120F7E726
:1023B0002DE9F047984616460D4604464FF00009B1
:1023C0004FF0200AC1F3074723E020684069C0436B
:1023D000400515D42068016841F40071016021684E
:1023E0006FF480604861C4F8309084F83DA084F8B0
:1023F0003E90216C41F00401216484F83C9021E07E
:10240000701C06D0FEF778FDA0EB0800B04203D8A0
:1024100016B1012F1FD021E02068012F15D080694F
:1024200025EA00000004000C18D000BF44F8309FDB
:1024300084F80DA084F80E90216941F020012161FB
:1024400084F80C900120BDE8F087406925EA00007F
:102450000004000CEAD12068406901E0206880692E
:1024600025EA00000004000CAFD1ECE770B5164679
:102470000D4604461EE02046FFF7BBFE08B10120D2
:1024800070BD681C16D0FEF737FD801BA84200D82F
:1024900085B920684069C04300060BD5002044F888
:1024A000300F20216173A073216941F02001216167
:1024B0002073E4E720684069C0430006DBD40020B5
:1024C00070BD000010B50E4C002208212046FEF71A
:1024D0000EFD00F017F8012210212046FEF707FD3F
:1024E00000F010F8002210212046FEF700FD00F059
:1024F00009F820460122BDE810400821FEF7F7BC8C
:10250000000C01400020401CC0B20A28FBD37047D9
:102510000C4800B5816985B041F00801816180698E
:10252000694600F0080004901820009003200390F2
:10253000112001900448FEF7E5FB00F09DF805B07E
:1025400000BD000000100240000C014010B50C4C12
:10255000012208212046FEF7CAFCFFF7D3FF012223
:1025600010212046FEF7C3FCFFF7CCFF002210210C
:102570002046FEF7BCFCBDE81040FFF7C3BF0000DB
:10258000000C01402DE9F0410024134E074625467A
:102590006006040E012210213046FEF7A8FCFFF76A
:1025A000B1FF08213046FEF79DFC08B1641CE4B27F
:1025B000002210213046FEF79AFCFFF7A3FF6D1CA6
:1025C000EDB2082DE4D327B1FFF77CFF2046BDE82C
:1025D000F081FFF7BBFFF9E7000C014070B5154E25
:1025E00005460024280601D5012200E0002208212A
:1025F0003046FEF77CFCFFF785FF012210213046B4
:10260000FEF775FCFFF77EFF002210213046FEF733
:102610006EFC072C04D1012208213046FEF767FC2E
:102620006806050EFFF76EFF641CE4B2082CD9D3D0
:1026300070BD0000000C014010B50E4C01220821B5
:102640002046FEF754FC012210212046FEF74FFCE5
:10265000FFF758FF002208212046FEF748FCFFF74D
:1026600051FF002210212046FEF741FCBDE810403A
:10267000FFF748BF000C014010B50A4C00220821AA
:102680002046FEF734FC012210212046FEF72FFCE5
:10269000FFF738FF20460122BDE810400821FEF771
:1026A00026BC0000000C014070B5104D012208212D
:1026B0002846FEF71CFCFFF725FF012210212846C3
:1026C000FEF715FCFFF71EFF08212846FEF70AFC5F
:1026D00008B1012400E00024002210212846FEF762
:1026E00006FCFFF70FFF204670BD0000000C014004
:1026F00010B54FF4E15304685A429C4201DD036077
:1027000002E0944200DA02600868984201DD0B6042
:1027100010BD9042FCDA0A6010BD00002DE9F041C6
:102720000D461B4E04004FF400514FF4805705D561
:1027300001223046FEF7DBFB002204E00022304697
:10274000FEF7D5FB012239463046FEF7D0FB002CC0
:1027500000DA64420F4F386804644FF480414C0043
:10276000002D05DA01223046FEF7C1FB002204E00D
:1027700000223046FEF7BBFB012221463046FEF721
:10278000B6FB002D00DA6D4238684563BDE8F08184
:10279000000C01400C1100207CB514460D46064685
:1027A0006B4606223B21682000F080F800280BD100
:1027B000BDF8001049BA3180BDF8021049BA29802D
:1027C000BDF8041049BA21807CBD7CB514460D4685
:1027D00006466B4606224321682000F067F8002871
:1027E0000BD1BDF8001049BA3180BDF8021049BACA
:1027F0002980BDF8041049BA21807CBD10B5FFF7CF
:1028000087FE80216B2000F0C0F86420FEF75AFAA2
:1028100000216B2000F0B9F8032000F082F80020BE
:1028200000F07AF8642000F099F80021382000F0D8
:10283000ACF800216A2000F0A8F80021232000F065
:10284000A4F88021372000F0A0F8752000F011F8DE
:10285000682801D0012010BD01216B2000F095F8FF
:1028600000216C2000F091F8642000F077F800203F
:1028700010BD10B50446FFF7DFFED020FFF7AEFE17
:10288000FFF712FF2046FFF7A9FEFFF70DFFFFF746
:10289000D3FED120FFF7A2FEFFF706FF0020FFF7CF
:1028A00071FE0446FFF7E8FE204610BD2DE9F04119
:1028B0001D4614460F460646FFF7BEFE7006000E84
:1028C000FFF78CFEFFF7F0FE20B1FFF7D5FE0120E9
:1028D000BDE8F0813846FFF781FEFFF7E5FEFFF720
:1028E000ABFE012000EB4600C0B2FFF777FEFFF71A
:1028F000DBFE09E0012C0DD05FF00100FFF742FE86
:10290000641E05F8010BE4B2002CF3D1FFF7B4FE0E
:102910000020DDE70020F1E7C006010E1C2000F0DA
:1029200034B8C006010E1B2000F02FB8BC2801D31C
:10293000012110E0622801D302210CE02A2801D3F2
:10294000032108E0142801D3042104E00A2801D35C
:10295000052100E006211A2000F017B810B5044642
:102960004FF47A70844201D9044602E0042C00D26C
:102970000424B0FBF4F0401EC1B2192000F005F8A9
:102980006008BDE81040FFF7D1BF70B50C460546A2
:10299000FFF752FED020FFF721FEFFF785FE50B96A
:1029A0002846FFF71BFEFFF77FFE2046FFF716FEC7
:1029B000FFF77AFE18B1FFF75FFE012070BDFFF749
:1029C0005BFE002070BD2DE9F0411E4615460F4606
:1029D0000446FFF731FE6006000EFFF7FFFDFFF72C
:1029E00063FE60B93846FFF7F9FDFFF75DFE00248E
:1029F0000CE0305DFFF7F2FDFFF756FE20B1FFF768
:102A00003BFE0120BDE8F081641CE4B2AC42F0D38F
:102A1000FFF732FE0020F5E710B59CB01C221649E6
:102A20006846FDF70CFC0021684603F0ABFD134C33
:102A300011491C22E0601C3107A8FDF700FC0021B1
:102A400007A803F09FFD0C4920601C2238310EA816
:102A5000FDF7F5FB00210EA803F094FD0649606028
:102A60001C22543115A8FDF7EAFB002115A803F03C
:102A700089FDA0601CB010BDD4900008CC000020DF
:102A80002DE9F04186B0002432480094019402946C
:102A90000394816941F010018161816901F01001A5
:102AA0000491816941F020018161816901F0200177
:102AB0000491816941F004018161816901F004019F
:102AC0000491816941F0080181618069224F00F021
:102AD00008000490002208213846FEF708FADFF8C3
:102AE0007C804FF21806002231464046FEF7FFF97F
:102AF000042000901A48CDE9010469463846FEF7E3
:102B000001F908200125CDE900050320CDE90240A7
:102B100069463846FEF7F6F80220CDE90240CDE9D5
:102B2000006569464046FEF7EDF8202000900D480C
:102B3000CDE9010569464046FEF7E4F8002205218B
:102B40000820FEF7DFFB0820FEF7CEFB06B0BDE84D
:102B5000F08100000010024000080140000C01401C
:102B600000003110000021100D4810B50B49016024
:102B70000C49416000214FF480428160C0E903129A
:102B800041618161C1610162FEF7BCF9002803D097
:102B9000BDE81040FEF724B810BD0000005400400E
:102BA000B8100020A086010010B592B000240F9448
:102BB0001C2168461094FDF75BFB202107A8FDF758
:102BC00057FB25482349C0E9001441F61F41C0E9DD
:102BD0000241046144618461FFF7C0F808B1FDF768
:102BE000FFFF0F940FA91C481094FEF767FE08B171
:102BF000FDF7F6FF602000904FF4E150CDE90104AD
:102C00000394049405940022694613480694FFF740
:102C10003FF808B1FDF7E4FF0C2269460E48019425
:102C2000FFF736F808B1FDF7DBFF07940894099425
:102C30004FF400500A94CDE90B4007A906480E94C2
:102C4000FEF712FE08B1FDF7CBFF0348FEF7FAFFCF
:102C500012B010BD002C01400C11002010B58CB03A
:102C600024216846FDF704FB0024154809944FF021
:102C700080410A94C0E900144FF6FF71C0E9024197
:102C8000046184610320CDE900040120CDE9020440
:102C90000494CDE905400794694609480894FEF775
:102CA000F1FE08B1FDF79CFF099409A904480A94B4
:102CB000FEF704FE002801D0FDF792FF0CB010BD16
:102CC0005411002010B586B00024174800940194D8
:102CD0000294039404941349059401604721C0E9C8
:102CE00001144FF6FF71C0E903148461FEF71AFE68
:102CF00008B1FDF775FF4FF48050009069460A480F
:102D0000FEF752FE08B1FDF76BFF049404A90648D4
:102D10000594FEF7D3FD002801D0FDF761FF06B052
:102D200010BD0000000400409C11002010B58CB0C4
:102D300024216846FDF79CFA00241648099414499A
:102D40000A94C0E900144FF6FF71C0E90241046122
:102D500084610320CDE900040120CDE9020404943C
:102D6000CDE90540079469460A480894FEF78AFEB3
:102D700008B1FDF735FF099409A906480A94FEF742
:102D80009DFD002801D0FDF72BFF0CB010BD000009
:102D900000080040E41100200C4810B50A49016009
:102DA0004FF416514160002181600C22C160C0E9DE
:102DB00004128161C161FFF799F9002803D0BDE8D1
:102DC0001040FDF70DBF10BD004800402C12002040
:102DD000FEE7FEE770B5002404F1B000C0B200F0D9
:102DE0008DF8002000F08AF8102000F087F8002508
:102DF000002000F095F86D1CEDB2802DF8D3641C16
:102E0000E4B2082CE8D370BD10B5C820FDF75AFF16
:102E1000BDE8104000F0D0BB10B50446B031C8B2D8
:102E200000F06CF8102040EA141000F067F804F08D
:102E30000F00BDE8104000F061B800002DE9F0413E
:102E4000203A00240D468046D6B27F2803D90020C0
:102E50008D1C8046EDB2102B29460FD0FFF7DCFF0A
:102E6000164906EB460001EB4005285D00F058F8D6
:102E7000641CE4B2062CF8D3BDE8F081FFF7CCFF68
:102E80000F4F00BF04EB0610385C00F049F8641CDB
:102E9000E4B2082CF6D36D1CE9B24046FFF7BCFF44
:102EA0005FF0000404EB06103844007A00F038F8B4
:102EB000641CE4B2082CF5D3DEE70000C27A0008F7
:102EC000EA7C00082DE9F041984617460E46044674
:102ED00000250DE0434631462046FFF7AFFF08349A
:102EE000E4B2782C02D90024B61CF6B26D1CEDB207
:102EF0007A5D002AEED1BDE8F081000001B584B012
:102F000001214FF4807204A88DE807000B460022CF
:102F100078210248FEF7BAF805B000BDB8100020CD
:102F200001B584B001214FF4807204A88DE8070038
:102F30000B46402278210248FEF7A8F805B000BDF4
:102F4000B81000200168486A002200B24A62704747
:102F5000012003F00BFBFBE710B50268086811467F
:102F6000FDF7F0F9FDF706FC002800DA40423C28A6
:102F700006DD00210846FFF7D1FB02490120087059
:102F800010BD0000E400002010B5FEF74FF904F07A
:102F9000D9FB012803D0BDE8104004F04BB910BDA7
:102FA00030B58FB028216846FDF762F914210AA8D0
:102FB000FDF75EF901210804CDE900100024029418
:102FC00002250491CDE907504FF4E01009906846BE
:102FD000FEF7A6FA08B172B6FEE70F20CDE90A05A2
:102FE0004FF48060CDE90C4002210AA80E94FEF750
:102FF000BBF9002801D072B6FEE70FB030BD7047B4
:10300000F0B50268164B174C174D4FF080479842A9
:1030100005D0B84203D0A04201D0A84203D122F08B
:1030200070064A683243984205D0B84203D0A042A5
:1030300001D0A84203D122F44074CA6822434C69EB
:1030400022F08002224302608A68C2620A688262B9
:10305000984201D10969016301214161F0BD00007D
:10306000002C0140000400400008004010B501F0B1
:103070001F030121046A99408C430462016A9A404B
:103080001143016210BD10B5846842EA032224F4A2
:103090007F440A432243826010BD826822F070029E
:1030A0000A4342F0070181607047000030B5036AAF
:1030B000026A22F0010202624268846924F0730508
:1030C0000C682C4323F002058B682B430A4DA84261
:1030D0000BD123F00805CB6822F440722B434D69D5
:1030E00023F0040315438A692A43426084614968D6
:1030F0004163036230BD0000002C014030B5026A1C
:10310000036A23F010030362436884690D6824F4A2
:10311000E64444EA05248D6822F0200242EA0512C2
:103120000B4DA8420ED1CD6822F0800242EA051272
:103130004D6923F4406343EA85038D6922F0400220
:1031400043EA85034360846149688163026230BD5C
:10315000002C014030B5036A026A22F480720262D8
:103160004268C46923F4007324F073050C682C438F
:103170008D6843EA05230C4DA8420ED1CD6823F497
:10318000006343EA05234D6922F4405242EA0512E6
:103190008D6923F4806342EA05124260C461496884
:1031A000C163036230BD0000002C014030B5046AE9
:1031B000026A22F4805202624268C3690D6823F4F5
:1031C000E64343EA05238D6824F4005444EA0534B9
:1031D000064DA84204D14D6922F4804242EA85128C
:1031E0004260C36149680164046230BD002C014043
:1031F00010B5036A046A24F001040462846924F0AF
:10320000F00444EA021423F00A020A4384610262D1
:1032100010BD10B5036A046A24F0100404628469C6
:1032200023F0A00324F4704444EA023243EA01117B
:103230008261016210BD000070B5094D0E46A96A99
:10324000FDF786F804463046FDF786FA696AFDF711
:103250007FF82146FDF724F8BDE87040FDF78ABAF3
:10326000E400002010B5406A0021C185C184FEF74A
:1032700006FE10BD01680C3151E8002F22F4907257
:1032800041E80023002BF5D10168143151E8002FEB
:1032900022F0010241E80023002BF5D1016B012946
:1032A00009D101680C3151E8002F22F0100241E8E9
:1032B0000023002BF5D1202180F84210002101636A
:1032C000704708B590F84210222901D0022008BDAD
:1032D00082684FF480539A4201D1016921B1816A19
:1032E0009A421BD04AB10AE00268816A5268C2F36E
:1032F00008020A80816A891C08E0026972B10268CA
:10330000526802F07F020A70816A491C8162C18D95
:10331000491E0904090CC18503D01BE002685268EC
:10332000F1E70168CA6822F02002CA600168CA6831
:1033300022F48072CA6001684A6922F001024A617F
:10334000202180F8421000214163026B012A03D042
:10335000FEF74CFF002008BD016301680C3151E805
:10336000002F22F0100241E80023002BF5D1016864
:103370000A68D20602D50A6849680091818DFEF775
:103380007DFDE7E770B5044600680169E26821F455
:103390004051114301612169A068084361690843F4
:1033A0002168CA6841F20C639A430243CA602068EC
:1033B0004169A26921F44071114341611E492068AD
:1033C000884202D1FEF776F801E0FEF763F800EBE1
:1033D000C00101EB0012606864218000B2FBF0F3D1
:1033E000B3FBF1F36FF018067343B2FBF0F5B2FBD9
:1033F000F0F605EB8305322303EB0515B5FBF1F57C
:10340000B6FBF1F605F0F00505EB0615B2FBF0F69C
:10341000B2FBF0F0B0FBF1F06FF01802504306EB96
:10342000800003EB0010B0FBF1F0216800F00F000A
:103430002844886070BD00000038014081628285A8
:10344000C28500214164222180F84210016921B126
:103450000168CA6842F48072CA6001684A6942F031
:1034600001024A610068C16841F02001C16000208A
:103470007047000010B51548FEF702FD14480278A9
:10348000401F0021027042B10123012A07D0052A02
:1034900009D0032A0AD0072A0DD0417000E04370FA
:1034A0008170C1700AE041708370FAE741708170E9
:1034B000C170037103E041708170C3700171BDE898
:1034C0001040012202490148FEF782BE2C12002062
:1034D000E1000020FEE700002DE9F047284C0646F9
:1034E0008846E069154625498146FCF763FF074693
:1034F000206208EB0500861BE06AFDF72DF9616B81
:103500008846FCF725FF05463046FDF725F90646B7
:1035100041464FF07E50FCF715FF3146FCF718FF8F
:103520002946FCF7BDFEFDF725F9E062216B054653
:10353000084444F620612063884202DC4942884204
:1035400000DA084620632078012802D10020206399
:103550002070206BFDF700F93946FCF7F9FE0446B0
:103560002846FDF7F9F84946FCF7F2FE2146FCF73C
:1035700097FEBDE8F047FDF7FDB8000000004843A6
:10358000E40000202DE9F0410A4D0E4607461146A1
:10359000A869FCF7DDFE044631463846FCF7D5FE47
:1035A0006969FCF7D5FE2146FCF77AFEBDE8F041DB
:1035B000FDF7E0B8E4000020FEB50024094F4FF409
:1035C000807501263819CDE90006012300227821F3
:1035D00002950548FDF75AFD641CE4B21B2CF1D39B
:1035E000FEBD000070000020B81000200FB4084B92
:1035F00010B504A902AA039800F070F9044602A9C4
:10360000002000F002FD204610BC5DF814FB000015
:103610000B400008490050EAC12018BF04204A0DA1
:1036200018BF40F0010040F2FF72B2EB515F08BFDB
:1036300040F00200012808BF052070470907090E65
:10364000002804DB00F1E02080F80014704700F04F
:103650000F0000F1E02080F8141D70472DE9F041C3
:103660004F1E00EBC7010446D1E9000115461E4676
:1036700037F006020DD02A463346FCF78CFF7F1E3A
:1036800004EBC703D3E90023FCF7DEFE37F00602A4
:10369000F1D1022F25D0042F13D0062F18BFBDE87B
:1036A000F0812A463346FCF776FFD4E90A23FCF77B
:1036B000CBFE2A463346FCF76EFFD4E90823FCF71D
:1036C000C3FE2A463346FCF766FFD4E90623FCF71F
:1036D000BBFE2A463346FCF75EFFD4E90423FCF721
:1036E000B3FE2A463346FCF756FFD4E90223FCF723
:1036F000ABFE2A463346FCF74EFFD4E90023BDE873
:10370000F041FCF7A1BE0122FDF78CB9FCF79CBE8D
:103710000022134610461146FCF7AFBF024A0020B4
:103720001107FDF77FB9000001FDFFFF02E008C8A7
:10373000121F08C1002AFAD170477047002001E02B
:1037400001C1121F002AFBD1704700000149086027
:10375000704700004C0100202DE9FF5F82B000217E
:10376000DDE90430020DDDF840B0034318D044F623
:103770001050A2F2FF3242431514119801281FD0B5
:10378000A5EB0B00401C5FEA000A4FF000064E4F0D
:10379000DFF83891B046504615D5CAF1000413E061
:1037A000119801244AA3012801D16FEA0B01029864
:1037B000119AC0E90031C0E9024206B0BDE8F09FAD
:1037C000CBF10000DFE704460021404A491842EBF4
:1037D0000450CDE9001012E0E00707D032463B4626
:1037E00040464946FCF7D7FE8046894632463B466E
:1037F00010461946FCF7CFFE06460F466410002C13
:10380000EAD1DDE90401DDE90023BAF1000F06DAAF
:10381000FCF7C1FE42464B46FCF7BDFE05E0FCF757
:103820002CFF42464B46FCF728FF04460E4600227A
:10383000284BFDF727F903D84FF0FF30014607E08A
:103840000022254B20463146FCF7FEFDFDF701F92D
:10385000102409E0002C0ADB0A220023FCF7FCFFFD
:10386000039B30321A55641E50EA0102F2D1641CE7
:10387000039AC4F111031444119A012A03D00122BE
:1038800008430DD10AE0084304D000204FF0110B8B
:10389000119072E7A3EB0B056D1E0DE05B4504DD97
:1038A0004FF0000205F1010504E003DA4FF00002D9
:1038B000A5F10105002AECD002981199C0E9023166
:1038C000C0E9004579E70000000014400000F03F27
:1038D000300000000000F0430000E03F2DE9FF4F02
:1038E00095B09B468946064600250FE2252877D1EC
:1038F00000242746F84A0121059400E0044316F805
:10390000013F203B01FA03F01042F7D130782A281A
:1039100011D06FF02F033078A0F13002092A16D8A9
:10392000059A44F0020402EB820203EB42021044C7
:10393000761C0590EFE759F8042B0592002A03DA6C
:10394000504244F40054059044F00204761C307850
:103950002E2816D116F8010F44F004042A280DD0A1
:103960006FF02F023078A0F13003092B09D807EB54
:10397000870302EB4303C718761CF3E759F8047B6F
:10398000761C30786C280FD006DC4C2817D06828BD
:103990000DD06A2814D104E0742810D07A280FD1F1
:1039A0000DE044F400140AE044F4801401E044F40F
:1039B00040147278824202D104F58014761C761C81
:1039C000307866280BD013DC582877D009DC002823
:1039D00075D04528F6D04628F4D047281AD19DE165
:1039E00018E0632835D0642879D0652812D195E194
:1039F000702873D008DC6728F1D069286FD06E2852
:103A00000DD06F2806D1B5E073282CD0752875D05D
:103A1000782874D05A46179990476D1C75E1C4F305
:103A20000250022809D003280DD0D9F8001004282C
:103A30000DD00D6009F1040967E1D9F80010EA170B
:103A4000C1E90052F6E7D9F800100D80F2E70D70D9
:103A5000F0E719F8041B8DF8001000208DF8010024
:103A6000EA46012003E059F804AB4FF0FF3061074C
:103A70004FF0000102D40DE008F101018846B9427F
:103A80000FDA8045F8DB1AF808100029F4D108E0B5
:103A900008F1010188468142FADB1AF80810002972
:103AA000F6D105985B46A0EB080721463846179AE1
:103AB00000F094FA284400EB080507E04DE029E106
:103AC0000DE01AF8010B5A4617999047B8F1010812
:103AD000F7D25B4621463846179A13E142E00A22A4
:103AE0000092C4F302524FF0000A022A08D059F89B
:103AF00004CB032A4FEAEC710AD00DE029E02AE05A
:103B000009F1070121F00702F2E802C1914609E03C
:103B10000FFA8CFC4FEAEC71042A03D14FFA8CFCAB
:103B20004FEAEC71002907DA0A460021DCF1000CAB
:103B300061EB02012D2202E0220504D52B228DF833
:103B40000420012203E0E20701D02022F7E790469B
:103B500059E00A2102E010220DE010214FF0000A86
:103B600000910BE010224FF0000A44F004040827F3
:103B7000009203E008224FF0000A0092C4F30252C0
:103B8000022A05D059F804CB0021032A08D009E005
:103B900009F1070121F00702F2E802C1914605E0B0
:103BA0001FFA8CFC042A01D10CF0FF0C4FF0000826
:103BB000220728D5702806D0009B83F0100353EA13
:103BC0000A0305D00EE040228DF80420012208E00F
:103BD0005CEA010206D030228DF804208DF8050041
:103BE00002229046009B83F0080353EA0A030AD19D
:103BF0005CEA010201D1620705D530228DF804206C
:103C00004FF001087F1E582804D034A003900EA85E
:103C100002900DE036A0F9E753466046009AFCF7A3
:103C20001BFE84460398825C0298401E029002703C
:103C30005CEA0100F0D1029806A9081A00F1200AF6
:103C4000600702D524F4803400E00127574502DDE7
:103C5000A7EB0A0000E0002000EB0A0100900598A5
:103C60004144401A0590E00306D45B462146179A6A
:103C7000059800F0B3F90544002706E001A85A466C
:103C8000C05D179990476D1C7F1C4745F6DBE0032C
:103C90000CD55B462146179A059800F09FF905441C
:103CA00004E030205A46179990476D1C0099481E31
:103CB00000900029F5DC08E0029802995A46007845
:103CC000491C0291179990476D1CBAF10001AAF1A5
:103CD000010AF1DC65E100000928010030313233CE
:103CE0003435363738396162636465660000000038
:103CF0003031323334353637383941424344454622
:103D00000000000000F058F90544761C30780028C7
:103D10007FF4ECAD19B02846BDE8F08F620700D4FF
:103D2000062709F1070222F0070CFCE80223E1460E
:103D300003F000485FEA080C02D00FF2702C0DE08F
:103D40005FEA045C02D50FF2682C07E05FEAC47CEE
:103D500002D00FF2602C01E0AFF2700C4FF0FF3890
:103D600023F00043CDF850C065280CD006DC452870
:103D700009D046281DD047283DD13DE0662818D0FF
:103D800067287ED138E00021112F01DB112000E0EF
:103D9000781CCDE9000106A90EA8FFF7DDFCDDE9DE
:103DA0000F010E9A03910021009207F1010A04917C
:103DB0004DE04FF000400097CDE9011006A90EA894
:103DC000FFF7CAFCDDE90F0203920E9B1199002256
:103DD000DDF80CA00093049211B9791C00EB010AE4
:103DE000B7EB0A0004D4C0F1FF3007F1010A0490D8
:103DF000AAEB0700019044E0012F00DA012700211F
:103E0000112F01DD112000E03846CDE9000106A99F
:103E10000EA8FFF7A1FCDDE90F010E9A0391002126
:103E200004910092BA4621070CD40399514500DA57
:103E30008A46BAF1010F05DD009AAAF10101515C31
:103E4000302908D0B84202DA10F1040F06DA012155
:103E5000CDE9011015E0AAF10101E9E7002805DC30
:103E6000049901440491AAEB000102E0411C514570
:103E700000DD8A460499401A401C01904FF0004032
:103E80000290200704D40198504501DBCDF804804E
:103E900000208DF84F0002980DF14F07B0F1004F50
:103EA00025D02B200E9002984FF0020800280CDA43
:103EB000404202902D200E9007E00A210298FCF764
:103EC000B5FC3031029007F8011DB8F10001A8F1EE
:103ED0000108F2DC02980028EFD1791E0E980870D4
:103EE000307800F0200040F0450007F8020D12A8DD
:103EF000C01B00F107081498007800B1012000EB06
:103F00000A01019801EBE07105984144401A401EF6
:103F10000590E00306D45B462146179A059800F009
:103F20005DF805441498007818B15A4617999047DF
:103F30006D1CE00324D55B462146179A059800F0D6
:103F40004DF805441CE00498002807DBDDE9030177
:103F5000884203DD0098405C179901E017993020F2
:103F60005A469047049805F10105401C04900198B9
:103F7000401E019004D12E205A46179990476D1C7F
:103F8000BAF10001AAF1010ADDDC05E017F8010B26
:103F90005A46179990476D1CB8F10001A8F1010825
:103FA000F4DC5B462146179A0598ABE62D0000002D
:103FB0002B000000200000002DE9F0410446002500
:103FC0001E461746880404D405E039462020B04731
:103FD0006D1C641EF9D52846BDE8F0812DE9F0413D
:103FE000044600251E469046C80301D5302700E050
:103FF0002027880404D505E041463846B0476D1CAB
:10400000641EF9D52846BDE8F0810A68531C0B6090
:10401000107070472DE9FE4F07460E460025684692
:1040200001F0B2F800246FF00F0AE8464FF00109E2
:1040300057F8240056F82410401A00D54042FCF7E7
:104040008BFB5146FCF7F4F958F8241011F0FF4FA0
:104050000BD0FCF7AFF94FF07E51FCF773F90A492A
:1040600020F00040884205DC07E008490844084980
:10407000884202D309FA04F00543641C032CD7DB01
:104080002846BDE8FE8F0000295C0F3E666666C1CB
:104090009A99D9002DE9F04D8D4F21F0004A86B054
:1040A00005460C46BA452ADBAAEB070028430AD08E
:1040B0008848824501DC1AD1CDB106B02846BDE85A
:1040C000F04DFFF720BB844A844B2846FCF763FA87
:1040D00007460E46824A834B28462146FCF75BFA88
:1040E00006B03A463346BDE8F04DFCF7ADB90120C5
:1040F000FFF72CFB06B0BDE8F04DFFF709BB7A488F
:10410000824542DABAF1795F0BDA2846FFF782FA84
:10411000042808BFFFF702FB284606B02146BDE889
:10412000F08D2A460B461046FCF735FA83460246C8
:104130006E480E460B4606217844FFF78FFA5A4622
:104140003346FCF728FA804669488A465A46334681
:1041500004217844FFF782FA5A463346FCF71BFAEB
:1041600000223B46FCF770F902460B46404651469A
:10417000FCF783FA2A462346FCF70DFA06B02A46D6
:104180002346BDE8F04DFCF75FB9284624F0004116
:1041900000223D463B46FCF7FBF94FF0FF32FCF7AF
:1041A00041FC0646024653480F460B46062178441A
:1041B000FFF754FA32463B46FCF7EDF9CDE9000132
:1041C0004D4832463B4604217844FFF747FA3246D1
:1041D0003B46FCF7E0F900222B46FCF735F9834615
:1041E00002913046394602F01FFD804643480D4695
:1041F000504517DCDDE900015A46029BFCF73DFA09
:1042000042462B46FCF7C7F942462B46FCF71CF901
:104210000122FCF707FC304A304BFCF7B6F9304A74
:10422000304B4CE04FF0000A52460B464046FCF73C
:104230000BF9CDE9031052462B4610461946FCF700
:10424000AAF932463B46FCF7A3F9DDE90332FCF755
:1042500014FA06460F46DDE900015A46029BFCF7B8
:104260000CFA83460091012230463946FCF7DAFB0E
:10427000194A1A4BFCF78CF906460F4601224046B4
:104280002946FCF7CFFB5A46009BFCF784F93246DF
:104290003B46FCF77AF906460F460122504629466E
:1042A000FCF7C0FB0E4DDFF858802A464346FCF76A
:1042B0006FF932463B46FCF76BF92A464346FCF75A
:1042C00067F9002CD8BF81F0004106B0BDE8F08D41
:1042D0000000F03F0000F07F075C143326A6913CFD
:1042E000182D4454FB21F93F0000E03F0C50000022
:1042F00022500000964F0000AC4F00003333EF3FD8
:10430000FB21E93F2DE9F84F04460D4621F000401E
:1043100000917349814211DC7249884201DC06D167
:104320002CB120462946BDE8F84FFFF7ECB96E489E
:10433000002DCCBF6D496E49BDE8F88F6D498142B3
:1043400011DD6D498142D8BF4FF0FF366DDD20464B
:104350002946FFF75FF9042808BFFFF7DFF9204679
:104360002946BDE8F88F6549654F25F00045814233
:1043700033DD6449814219DD002632464FF0804327
:1043800020462946FCF760F880468A4601222046EE
:104390002946FCF747FB00223B46FCF7F6F842466D
:1043A0005346FCF76AF904460D463EE0012600221A
:1043B000BA463B4620462946FCF746F880460F465B
:1043C0000022534620462946FCF7DFF842463B468A
:1043D000FCF753F904460D4627E04B4981421BDDAB
:1043E000DFF828A102260022534620462946FCF782
:1043F000D2F800223B46FCF727F880460F46002201
:10440000534620462946FCF7C0F842463B46FCF797
:1044100034F904460D4608E0032622462B460020C8
:104420003B49FCF72AF904460D4622462B46104626
:104430001946FCF7B0F88B46824602460B46FCF75D
:10444000AAF807460246334888460B4606217844B8
:10445000FFF704F952465B46FCF79DF882462E486A
:104460008B463A46434605217844FFF7F7F83A462B
:104470004346FCF790F802460B46002E504659463C
:104480000CDAFBF7E1FF22462B46FCF784F801B07B
:1044900022462B46BDE8F04FFCF77AB8FBF7D4FF75
:1044A00022462B46FCF777F81C4A7A4402EBC603F7
:1044B000D3E90023FCF769F822462B46FCF765F8A0
:1044C000174A7A4402EBC603D3E90023FCF760F8ED
:1044D000009A002AB8BF81F00041BDE8F88F0000C3
:1044E000000010440000F07F182D4454FB21F93FD8
:1044F000FB21F9BF0000DC3F0000203E0000F33F3D
:104500000000F03F0000E63F008003400000F83F5D
:104510000000F0BFAE4D00006C4D00000A4D0000E1
:10452000D24C00002DE9F04D9446CCF1000423F06C
:1045300000464CEA0404524F46EAD4749A46884630
:1045400021F00042BC4206D8454240EA050442EA56
:10455000D474BC4204D9BDE8F04D6246FFF7D6B82A
:10456000AAF14055A5F17F6555EA0C040BD0022451
:1045700004EAAA74434DDFF810E144EAD87452EA21
:10458000000B04D00CE0BDE8F04DFFF7BBBE002CE3
:1045900014BF012CBDE8F08D022C30D0032C32D09A
:1045A00056EA0C0B0AD0BE4220D1BA4209D126F0FD
:1045B000804622F080423346114617E000291ADB7C
:1045C00025E0DFF8C8B0FB44002C04BFDBE90001A4
:1045D000BDE8F08D012C02BFDBE9000181F0004154
:1045E000BDE8F08D022C0AD0032C0CD0BA4212D1B7
:1045F000B8F1000F0BDA23482549BDE8F08D2846B5
:104600002449BDE8F08D28467146BDE8F08D1D486F
:104610002149BDE8F08D921B12153C2AC4BF1948F0
:104620001D490EDCBAF1000FBEBF12F13C0F002095
:10463000014606DB6246FCF720F821F00041FFF757
:1046400061FE002C08BFBDE8F08D012C04BF81F095
:104650000041BDE8F08D114A114B022C07D0FBF749
:1046600094FF2A46BDE8F04D0A4BFBF78EBFFBF7DF
:104670008CFF2A46BDE8F04D064BFBF789BF0000D2
:104680000000F07F182D4454FB2109C0664C000047
:10469000FB21F9BFFB210940FB21F93F075C1433E3
:1046A00026A6A13C074C00BF94F84200222804D063
:1046B000012205490348FDF78BFD642002F014FC3C
:1046C000F2E700002C120020E100002086B003F089
:1046D00047F8DFF85CA1DFF85C81DFF85CB1DFF858
:1046E0005C91574D574C002602900521286802F036
:1046F000DBFE01287ED15448FEF724FCA06353481A
:10470000FEF720FC4F4A40424832111FE063081F69
:1047100001F052F84B4A921D911E881EFEF755F883
:10472000484A0C32911E881EFEF736F89AF800109F
:1047300098F8000051EA000200D1A665012902D1D3
:10474000A16D491EA1650128A06D01D1401CA06585
:104750000C2801DD0C2004E06FF00B01884200DA28
:104760000846A0659BF8001099F8007051EA07030D
:1047700000D1E665012902D1E26D1E32E265E26DEB
:10478000012F01D11E3AE265962A01DD962204E04E
:104790006FF0950C624500DA6246E26523B10129AB
:1047A00005D0012F03D003E02949A16200E0A662F1
:1047B000D4E90E12FEF790FE07462065B4F9020018
:1047C000FBF7CAFF00903846FBF7C6FF2169FBF7ED
:1047D00067FD009A616CFEF7D5FEE064B4F906004F
:1047E000FBF7BAFFE16DFEF727FD6065E16C0A1A81
:1047F000084400E016E01349C4E918206431081F9A
:10480000FDF776FFD4E91801FDF788FF0D49443123
:10481000A1F13400FEF7A0FB00231A4619462868D0
:1048200002F092FD0A2102A802F084FB5DE700007D
:10483000DD000020DE000020DF000020E00000207E
:10484000C4000020E400002054110020E4110020E6
:104850009A99193F08B560B120208DF800002820F2
:104860008DF8010030208DF8020038208DF803000B
:1048700004E0A32204216846FBF7F3FC6A46042106
:1048800040F69E2001F048FE01F006FB08BD000046
:104890003EB5044602208DF80000CA208DF80100C4
:1048A000E3208DF8020009208DF803006A460421F8
:1048B000682001F031FEA3208DF80000610609D5C3
:1048C000C0218DF80110C8218DF80210C2218DF889
:1048D000031005E08DF801008DF802008DF803004B
:1048E00014F4C07F09D0C4218DF80410CC218DF8B8
:1048F0000510C6218DF8061005E08DF804008DF82E
:1049000005008DF806008DF808008DF807008DF879
:1049100009006A460A2140F6A72001F0FDFDA00724
:104920004FF0D80503D020208DF8000001E08DF86D
:1049300000506A46012140F6B62001F0EDFDA006C8
:1049400001D5012000E0002000F08EF814F4C07FB3
:104950001ED0E0050AD5B2208DF800008B208DF81E
:104960000100B6208DF802009B2009E0B0208DF8F0
:10497000000080208DF80100B4208DF80200902006
:104980008DF803006A46042140F6A22001F0C4FD20
:10499000E1074FF40B6022D0F8218DF800106A4631
:1049A000012101F0B9FDFA21072000F039FB0720B1
:1049B00000F004FB012000F021FB642000F0C4FBA8
:1049C0004FF4FA7000F0D0FBC821254800F0BEFA81
:1049D000282000F0D3FA0A2000F0E0FA05E08DF874
:1049E00000506A46012101F097FDA00703D5D920A8
:1049F0008DF8000001E08DF800506A46012140F278
:104A00003D7001F089FD600701D5012000E0002024
:104A100000F048F8E00601D5012000E00020FFF793
:104A200019FF104D44F00800688101F035FA0020AC
:104A3000A873600601D50620A87314F4C07F02D0C5
:104A4000A87B801DA87314F0140F02D0A87B10302F
:104A5000A873A00702D0A87B001DA87300203EBD4C
:104A600009E3CA02400E00200EB54FF4976310B15F
:104A700006A107C901E008A207CA8DE807006A4637
:104A80000921184601F048FD0EBD0000B8AAB38DFB
:104A9000B4980D355D000000B8AAAAAAB088C3C5B5
:104AA000C700000008B560B1C0208DF80000C2202A
:104AB0008DF80100C4208DF80200C6208DF8030097
:104AC00004E08B2204216846FBF7CBFB6A460421F5
:104AD00040F6982001F020FD01F0DEF908BD00004D
:104AE000C8234FF48062024940F6F63001F0B6B8B0
:104AF000DC8400082DE9FF4F89B01746DDE9165226
:104B000000244C4E884681462C80A246B07B6946E4
:104B100001F050F94FF0FF3B18B158460DB0BDE819
:104B2000F08F708910F0140F3CD0009909BA21F071
:104B3000FF039DF803100B433B6001991B1409BA56
:104B400021F0FF029DF807105B430A437A60029947
:104B50009DF80B4009BA21F0FF012143B960039C85
:104B6000091424BA24F0FF0C9DF80F4012144CEAEB
:104B7000040CC7F80CC04FEA2C47494302FB023231
:104B800007FB071111441024A1F17061B1F1007FFE
:104B900004D901F081F9A5F800A0BEE7298841F405
:104BA000807129804206694611D50A19A41D13880F
:104BB0005BBAA8F8003053885BBAA8F80230928834
:104BC00052BAA8F804202A8842F008022A8010F479
:104BD000C07F11D00A19A41D13885BBAA9F8003050
:104BE00053885BBAA9F80230928852BAA9F8042017
:104BF0002A8842F070022A80800716D00C44E078A0
:104C000000F0C00500F03F016078C00706D0C8087A
:104C100001F007013268491C02B190476078000733
:104C200003D5716809B1A80988470C9800F098FD70
:104C3000002073E7400E00202DE9FF41044603A841
:104C400000F0F4FEBDF80C00410CC3032F480289AC
:104C500002F00300550754F8200000D54042C2F38B
:104C6000C105960654F8255000D56D42C2F3811651
:104C7000D20554F8264000D56442A0FB0367C21752
:104C800002FB037200FB0120820042EA9670A5FB42
:104C90000367EA1702FB037205FB0122950045EA50
:104CA0009672A4FB0367E51705FB037304FB013150
:104CB0008B0043EA9671030E8DF80030030C8DF8DB
:104CC0000130030A8DF802308DF80300100E8DF8C4
:104CD0000400100C8DF80500100A8DF80600080E6F
:104CE0008DF80800080C8DF80900080A8DF80A00F4
:104CF0008DF807208DF80B106A460C214FF42570B3
:104D000001F00AFC04B0BDE8F0810000400E002074
:104D100030B5044613A285B007CA8DE807004FF0EE
:104D2000FF35C82C16D8C820B0FBF4F1491E080A7C
:104D30008DF80C008DF80D1003AA022140F2162008
:104D400001F0EAFB30B96A460C2140F6C12001F0BF
:104D5000E3FB10B1284605B030BD05488481002032
:104D6000F9E70000FEF2ABC4AAF1DFDFBBAFDFDF83
:104D7000400E0020F8B53049098901F0030250F8CF
:104D800022404A0700D56442C1F3C1028B0650F8A5
:104D9000222000D55242C1F3811350F82330C805B8
:104DA00000D55B42254984FB0140850045EA9470AB
:104DB00082FB0142A40F44EA820483FB0121950F88
:104DC00045EA8105010E8DF80010010C8DF80110E7
:104DD000010A8DF802108DF803006A4604214FF491
:104DE000747001F099FB4FF0FF3688B9200E8DF8F2
:104DF0000000200C8DF80100200A8DF802008DF8CB
:104E000003406A4604214FF4757001F085FB08B138
:104E10003046F8BD280E8DF80000280C8DF80100F2
:104E2000280A8DF802008DF803506A4604214FF4D9
:104E3000767001F071FBF8BD400E002009E3CA0254
:104E40002DE9FF4104463CA004F0030300680290F2
:104E50003AA0006803903AA006683AA0056802A844
:104E6000C15C8DF80010C4F3C101425C8DF80120D3
:104E7000C4F38112805C8DF8020003A8C35C8DF836
:104E80000430415C8DF80510805C8DF806006A46A0
:104E9000032140F2264001F03FFB4FF0FF37E0BB1B
:104EA00001AA032140F22A4001F036FBA8BBCDE95C
:104EB000006560070BD59DF8000040F001008DF8FB
:104EC00000009DF8040040F001008DF80400A006E9
:104ED0000BD59DF8010040F001008DF801009DF810
:104EE000050040F001008DF80500E0050BD59DF8A8
:104EF000020040F001008DF802009DF8060040F02D
:104F000001008DF806006A4603214FF4886001F025
:104F100003FB10B901AA032100E004E040F2314094
:104F200001F0FAFA18B1384604B0BDE8F08106483D
:104F300004810020F8E700004CCD6C000CC92C0067
:104F40003656760026466600400E00204FF47A72F0
:104F500090FBF2F008B54843010E8DF80010010CEB
:104F60008DF80110010A8DF802108DF803006A46D1
:104F700004214FF4AE7001F0CFFA08BD0521B0FB5B
:104F8000F1F008B5010A8DF800108DF801006A46AD
:104F900002214FF4AD7001F0BFFA08BD0521B0FB4E
:104FA000F1F008B5010A8DF800108DF801006A468D
:104FB00002214FF4AC7001F0AFFA08BD08B5002132
:104FC0008DF80010C10702D030218DF80010810744
:104FD00005D59DF8001041F00C018DF80010400738
:104FE00005D59DF8000040F003008DF800006A46EA
:104FF00001214FF4A47001F08FFA08BD08B560B12B
:10500000042800D90420401E8DF800006A460121C2
:1050100040F24F1001F080FA08BD0120F3E70000D4
:105020002DE9FC41054640074FF0FF367CD0B1F535
:10503000C86F79D80846FBF798FB3E49FBF7BAF9E9
:10504000074601A800F0D4FC9DF80400022806D011
:1050500004280DD008282ED0102865D134E00E2168
:105060003846FBF7E5F9FBF79EFB84B2324907E0CF
:105070000D213846FBF7DCF9FBF795FB2F4984B28D
:105080003846FBF765F9FBF78EFB210A8DF8001017
:1050900080B28DF80140010A8DF802108DF80300EE
:1050A000E8076C4620D0224602214FF4EA7001F056
:1050B00033FAC8BB11E00C213846FBF7B9F9FBF70E
:1050C00072FB84B21E49DBE70B213846FBF7B0F9CF
:1050D000FBF769FB84B21B49D2E7A21C02214FF403
:1050E000927001F019FAF8B9A8070DD56A460221A5
:1050F0004FF4EC7001F010FAB0B9A21C02214FF489
:10510000947001F009FA78B9680710D56A4602214F
:105110004FF4EE7001F000FA30B9A21C02214FF4F6
:10512000967001F0F9F910B13046BDE8FC8100201D
:10513000FBE7000000004843000040460000C04577
:10514000000040450000C0440521B0FBF1F008B567
:10515000010A8DF800108DF801006A4602214FF413
:10516000EF7001F0D9F908BD0521B0FBF1F008B5E9
:10517000010A8DF800108DF801006A4602214FF4F3
:10518000ED7001F0C9F908BD2DE9FE430646264839
:1051900001AB042240680D210078FDF787FB10B1B8
:1051A0000720BDE8FE839DF804101C2000EAD10210
:1051B0009DF80710DFF87490C1F301131A438DF8BE
:1051C00000209DF80520C1F3810300EAD2021A43B2
:1051D0008DF801209DF8062001F0030100EAD200BD
:1051E00008430024124F8DF80200A0466D46285D4A
:1051F00010B146F824900AE046F824800DE000BF84
:1052000056F824003946FBF7A3F846F82400285D39
:10521000401E10F0FF002855F2D1641CE4B2032CAC
:10522000E5D30020BDE700008C0000207B14AE3EDB
:105230001D5A843F2DE9FE4F05460120C14E8DF8D1
:1052400000004FF000088DF8018030680C461746CA
:10525000817C70686B4602220078FDF7B4FB4FF04A
:10526000FF3A00287AD1C820FBF72CFD8DF800808A
:1052700030686B460122C17B70680078FDF7A3FBA4
:105280000028EFD130686B460122417970680078C0
:10529000FDF799FB0028E5D130686B460122817C3F
:1052A00070680078FDF78FFB0028DBD130686B4613
:1052B0000122C17D70680078FDF785FB0028D1D1FF
:1052C00030686B460122017970680078FDF77BFB3E
:1052D0000028C7D14FF00C098DF8009030686B465C
:1052E0000122017970680078FDF76DFB002835D147
:1052F0000F20FBF7E7FCB06A6B460122407A8DF87D
:1053000000003068817870680078FDF75CFB002849
:1053100024D1B06A6B460122007A8DF80000306813
:10532000417870680078FDF74EFB002873D1B06AB1
:10533000807A0FB140F0E0008DF8000030686B46D5
:105340000122817970680078FDF73DFB002862D169
:105350002FB1B06AC07A40F0E00001E04AE01820C6
:105360008DF8000030686B460122C17970680078C2
:10537000FDF729FBF0BB17B1C820FBF7A3FC4020C9
:105380008DF8000030686B46012201797068007862
:10539000FDF719FB70BB78208DF8000030686B4674
:1053A0000122417970680078FDF70DFB10BB3220B7
:1053B000FBF788FC8DF80080306847466B464179E2
:1053C000706801220078FDF7FEFA98B931687068BC
:1053D000B046897A00786B460222FDF767FA48B931
:1053E000BDF80000AF6040BAB0FBF9F06F60C6B224
:1053F0002F6000E00FE0A76067602760002739E0BA
:10540000D8F80010D8F804006B46C97A00780C224E
:10541000FDF74CFA10B15046BDE8FE8FBDF8000014
:10542000236840BA02B2BDF80200BDF804101A4465
:10543000226040BA626800B21044606049BAA06855
:1054400009B20844A060BDF806002B6840BA02B259
:10545000BDF808001A4440BA01B2BDF80A002A603B
:105460006A6840BA11446960A96800B208447F1CA8
:10547000FFB2A860B742C3D328688322C1170904CA
:1054800041EA104100040023FAF798FE3246002357
:10549000FAF794FE286068688322C117090441EA7C
:1054A000104100040023FAF789FE32460023FAF780
:1054B00085FE6860A8688322C117090441EA10418B
:1054C00000040023FAF77AFE32460023FAF776FE4C
:1054D000A86020684FF40065C117090441EA104133
:1054E00000042A460023FAF769FE32460023FAF741
:1054F00065FE206060682A46C117090441EA104130
:1055000000040023FAF75AFE32460023FAF756FE4B
:105510006060A0682A46C117090441EA10410004EE
:105520000023FAF74BFE32460023FAF747FEA0604D
:10553000002802DDA0F5803001E000F58030A06099
:10554000002069E78C0000202DE9F84F81462E48A5
:105550008846002540686B46032200780D21FDF740
:10556000A5F910B10720BDE8F88F9DF800000024D0
:1055700000F01F008DF800009DF801006FF00F0B88
:1055800000F01F008DF801009DF802006E4600F04B
:105590001F008DF802004FF0010A00BF59F82410D7
:1055A00058F82400081A00D54042FBF7D5F85946B0
:1055B000FAF73EFF0746305DC0B1144802E01449D7
:1055C000FAF7C6FE315D491E11F0FF013155F6D1E3
:1055D00001463846FAF7EEFE4FF07E51FAF7B2FE7A
:1055E0000C4920F00040884205DC07E00A483844B6
:1055F000B0F1D97F02D90AFA04F00543641C032CE8
:10560000CCDB2846AFE700008C0000200000C8413A
:1056100054E3853F295C0F3E0000E0BE00B5024622
:1056200000F00DF80346D01C00F009F843EAC0036F
:10563000901D00F004F843EA801080B200BD90F99C
:105640000010002902DD4FF00000704702DA4FF031
:105650000400704790F90110002902DD4FF00100AD
:10566000704702DA4FF00500704790F902000028F9
:1056700002DD4FF00200704702DA4FF0060070477B
:105680004FF0070070470000FBF7D8FDFDF788FCDE
:10569000FDF7F6F9FDF768FAFDF714FBFDF784FA5C
:1056A000FDF7DCFAFDF742FBFDF776FBFDF7ACFBFF
:1056B000FDF790FBFDF7A2F800F04CF90021102354
:1056C0001AA20846FDF7FEFB002211461720FBF741
:1056D00019FE1720FBF708FE00211748FCF780FB96
:1056E0000C211548FCF77CFB3C211448FCF762FABE
:1056F0003C211348FCF75EFA012212491248FCF7DC
:1057000067FD00210846FDF709F8FDF763FB01205E
:1057100001F0A6FD0D490860012001F0A1FD0C4932
:105720000860FDF779F900F028FFFEE7496E69741B
:1057300020537563657373000C1100205411002011
:10574000E4110020E10000202C120020C400002001
:10575000C800002001460020842900D0C81C7047E2
:10576000704700002DE9F041124C20F001010025A6
:1057700094F8240010B10020BDE8F081A07A4FF029
:10578000FF3668B10840277C2074884200D0354637
:1057900041B1012001F01CFA00F07EFB38B1277402
:1057A0003046E9E7207D00B1012001F011FA2846DA
:1057B000E2E700008C0000202DE9F74F8EB00CA925
:1057C00002A8CDE900010BAB03AA09A907A8FFF7BE
:1057D00091F918B1012011B0BDE8F08FBDF80800B3
:1057E000C0057DD50398FAF7B7FF6FF01D04214679
:1057F000FAF71EFE82460498FAF7AEFF2146FAF742
:1058000017FE81460598FAF7A7FF2146FAF710FE22
:1058100080460698FAF7A0FF2146FAF709FE0546EA
:1058200001215046FAF704FE06464146FAF790FD7C
:1058300004464FF040414846FAF78AFD074629469C
:10584000FAF786FD2146FAF72BFDFAF7C0FFFEF7BF
:1058500021FC4FF0663B5A463D4BFAF79CFEFAF7A7
:10586000C9FF0E99086001214046FAF7E1FD414663
:105870000090FAF76DFD044638464946FAF768FD90
:105880002146FAF75FFD4FF07E51FAF709FDFAF76E
:105890009EFF07460C4630464946FAF759FD064634
:1058A00029460098FAF754FD3146FAF7F9FCFAF761
:1058B0008EFF3A462346FEF735FE5A46244BFAF74A
:1058C0006AFEFAF797FF0F99086029460846FAF72B
:1058D0003FFD074641460846FAF73AFD064600E016
:1058E00034E049460846FAF733FD04465146084677
:1058F000FAF72EFD2146FAF7D3FC3146FAF722FDDE
:105900003946FAF71FFDFAF762FF06460C462946AC
:105910005046FAF71DFD054641464846FAF718FD80
:105920002946FAF7BDFC0121FAF782FDFAF74FFF8D
:1059300032462346FEF7F6FD5A46054BFAF72BFE94
:10594000FAF758FF10990860002044E7022042E768
:1059500066A64C4010B5FCF7DBFD00F0EDF808B191
:105960000A2010BD782000F07BFD10F0FF0F01D061
:10597000012010BD7820FFF7F5FE10F0FF0F01D0D9
:10598000022010BD642000F02BFD10F0FF0F01D0AD
:10599000032010BDFFF7A4F810F0FF0F01D0042082
:1059A00010BD1248FFF73AFEFFF74AFA10F0FF0F5A
:1059B00001D0052010BD40F27310FEF769FF10F012
:1059C000FF0F01D0062010BD6420FFF7A1F910F0F1
:1059D000FF0F01D0072010BD01F0BAF8012000F040
:1059E00025FC10F0FF00F6D0092010BDB800002003
:1059F0000D494A7A42B1012A08D0022A0FD0032A5F
:105A00000FD04FF0FF307047022200E004220270F6
:105A1000C97C11B11106C90D017000207047082220
:105A2000F5E71022F3E700008C0000200F494A7AC6
:105A300042B1012A09D0022A11D0032A12D04FF014
:105A4000FF3070474FF4804201E041F69C720280C3
:105A5000C97C11B1C2F34E010180002070474FF4A0
:105A60008052F4E74FF40062F1E700008C00002060
:105A70000B49097A39B1012907D002290AD0032933
:105A80000BD0002103E0FA2101E04FF4FA7101800C
:105A9000002070474FF47A71F9E74FF4FA61F6E7A6
:105AA0008C0000200A49097A41B1012908D0022955
:105AB0000AD003290AD04FF0FF307047054900E0B3
:105AC00005490160002070470449FAE70449F8E7F6
:105AD0008C00002000000343000083423333034264
