:020000040800F2
:10000000B007002091010008E31C00082B14000831
:10001000E11C0008E30500089F1F00080000000025
:10002000000000000000000000000000571E000853
:10003000E505000800000000551E0008591E0008D4
:10004000AB010008AB010008AB010008AB010008E0
:10005000AB010008AB010008AB010008AB010008D0
:10006000E7050008AB010008AB010008AB01000880
:10007000AB010008AB010008AB010008AB010008B0
:10008000AB010008AB010008AB010008AB010008A0
:10009000AB010008AB010008AB010008AB01000890
:1000A000AB010008AB010008AB010008AB01000880
:1000B000AB010008AB010008AB010008AB01000870
:1000C000AB010008AB010008AB010008AB01000860
:1000D000AB010008AB010008AB010008AB01000850
:1000E000AB010008AB010008AB01000800F002F80A
:1000F00000F03FF80AA090E8000C82448344AAF183
:100100000107DA4501D100F034F8AFF2090EBAE880
:100110000F0013F0010F18BFFB1A43F0010318473B
:10012000106E0000306E0000103A24BF78C878C10D
:10013000FAD8520724BF30C830C144BF04680C60ED
:10014000704700000023002400250026103A28BF35
:1001500078C1FBD8520728BF30C148BF0B60704739
:10016000732900F0DA81002070471FB51FBD10B55C
:1001700010BD00F001FA1146FFF7F7FF03F096FA01
:1001800000F01FFA03B4FFF7F2FF03BC00F022FAFD
:100190000948804709480047FEE7FEE7FEE7FEE71B
:1001A000FEE7FEE7FEE7FEE7FEE7FEE70448054957
:1001B000054A064B70470000BB1E0008ED00000812
:1001C000B0010020B0070020B0030020B0030020E1
:1001D00010B54C1084EA530404D54042C1F100012B
:1001E00038BF491E1B4204D55242C3F1000338BF39
:1001F0005B1E00F0E0F814F0804F04D04042C1F1E3
:10020000000138BF491E14F0004F04D05242C3F120
:10021000000338BF5B1E10BD0FB41CB5074B06AA08
:100220007B4469460090059800F04DF9002069462E
:1002300000F05CF91CBC5DF814FB0000C902000072
:100240002DE9F0410E460446002020622046E16878
:10025000884730B3252805D0D4E901219047206A8A
:10026000401CF2E7E168204600278847050018D0C7
:10027000A5F14100192802D820354FF40067324615
:10028000294620462760FFF76BFF40B1012804D0C4
:10029000F61D26F007060836D8E7361DD6E72846AD
:1002A000DAE7206ABDE8F08170B50C460546012A00
:1002B00005D02878800600D5EA69002302E00123F2
:1002C00005E05B1C934202D2E05C0028F9D1A869EA
:1002D000E618C01AA861286A184428622846AFF3B5
:1002E000008004E0D5E9012114F8010B9047B442E5
:1002F000F8D32846AFF3008070BD40EA010310B583
:100300009B070FD1042A0DD310C808C9121F9C42A5
:10031000F8D020BA19BA884201D9012010BD4FF097
:10032000FF3010BD1AB1D30703D0521C07E00020E4
:1003300010BD10F8013B11F8014B1B1B07D110F841
:10034000013B11F8014B1B1B01D1921EF1D1184644
:1003500010BD02F0FF0343EA032242EA024200F02A
:10036000E2B84FF0000200B5134694469646203995
:1003700022BFA0E80C50A0E80C50B1F12001BFF45E
:10038000F7AF090728BFA0E80C5048BF0CC05DF8C4
:1003900004EB890028BF40F8042B08BF704748BF12
:1003A00020F8022B11F0804F18BF00F8012B704786
:1003B00070477047704753EA020C00F069802DE9DE
:1003C000F04B4FF00006002B1FBFB3FA83F503FA82
:1003D00005F424FA05F65E4012BF1643B2FA82F520
:1003E00002FA05F4C5F120051EBF22FA05FC44EA15
:1003F0000C04203556EA044C4FEA144418BF641C20
:100400004FF000084FF00009904271EB030C39D314
:10041000002919BFB1FA81F701FA07F6B0FA80F79F
:1004200000FA07F6C7F120071EBF20FA07FC46EACC
:100430000C062037B6FBF4FCA7EB0507103F07F0CE
:100440001F0BCBF120060CFA0BFB2CFA06F644BF6F
:10045000B3460026202FA4BF5E464FF0000B5BEA98
:10046000060C08BF4FF0010B19EB0B09ABFB027C2C
:1004700048EB0608C01B06FB02CC0BFB03CC71EB60
:100480000C01C1E70B46024641464846BDE8F08BE9
:1004900013B54FF000004FF00001AFF30080BDE84E
:1004A0001C40704710B500F05FF8006810BD10B533
:1004B000044600F059F8046010BD000001694A1CB0
:1004C00002610878704700B58FB0CDE90131002195
:1004D000059105497944CDE9031011466846FFF7B7
:1004E000AFFE0FB000BD0000E5FFFFFF0A6802F895
:1004F000010B0A60704710B5436913B1AFF3008078
:1005000001E0FFF7D1FE012010BD127800F12401B7
:100510000A7000224A700122EDE711684FF0FF32A5
:10052000E9E74FF000020429C0F0128010F0030C3C
:100530003FF419AFCCF1040CBCF1020F18BF00F866
:10054000012BA8BF20F8022BA1EB0C01FFF70BBF7A
:100550005FEAC17C24BF00F8012B00F8012B48BFE3
:1005600000F8012B70470000004870474C01002044
:10057000004870474C0100207546FFF7F9FFAE4672
:1005800005006946534620F00700854618B020B59F
:10059000FFF70CFEBDE820404FF000064FF00007CB
:1005A0004FF000084FF0000B21F00701AC46ACE81B
:1005B000C009ACE8C009ACE8C009ACE8C0098D4688
:1005C000704710B50446AFF300802046BDE81040E8
:1005D000FFF7D8BD01491820ABBEFEE72600020098
:1005E0007047FEE77047042000F052B872B6FEE78D
:1005F00010B5094C01220821204600F04AF90C20D0
:1006000002F0BCF800220821204600F042F9BDE8C3
:1006100010400C2002F0B2B80008014070B504464A
:1006200000F03CF90546601C02D004480078044400
:1006300000F034F9401BA042FAD370BD70000020D6
:1006400010B504210E4800F01FF90E4C01280ED001
:10065000204600F069FE2068406A0B4C80B2208082
:1006600004F0D4FE094904F0E5FE606010BD216885
:1006700000204862BDE81040024800F02DBE000096
:1006800000080140040100206800002096438B3CD4
:10069000044910B50A68024202D00860FFF7D0FF93
:1006A00010BD0000140401402DE9F84FDFF8B891A7
:1006B0000024A9F1040B23460F2709F1040AABF12A
:1006C000040EC9E00125A5402A40AA427DD1674E0B
:1006D000D1F804C0ACEB0608B44532D014DCBCF150
:1006E000030F3AD009DCBCF1000F2AD0BCF1010F96
:1006F0001CD0BCF1020F31D11DE0BCF1110F17D09D
:10070000BCF1120F2AD119E0B8F5881F19D006DC08
:10071000B8F5803F15D0B8F5801F1FD111E0B8F5AE
:10072000001F0ED0B8F5041F18D10AE0CB6815E001
:10073000CB681B1D12E0CB6808330FE0CB680C338D
:100740000CE08B682BB1012B4FF0080303D04561FF
:1007500004E0042302E0056100E00023FF2A01D841
:10076000064601E000F104064FEA840501D9A5F12F
:100770002005D6F8008007FA05FC28EA0C0803FAE1
:1007800005F548EA0508C6F800804D68ED0062D519
:10079000374DAE6946F00106AE61AD6924F003063F
:1007A00005F001050095334D06EB050CDCF808500B
:1007B000A607360F07FA06F825EA0805DFF8B8801D
:1007C000404503D14FF0000817E044E0DFF8AC806B
:1007D000404502D14FF001080FE0DFF8A48040450A
:1007E00002D14FF0020808E0DFF89880404502D1BE
:1007F0004FF0030801E04FF0040808FA06F848EA51
:100800000508CCF808804D68D9F80060ED024D4627
:1008100001D5164300E096432E604D68DAF800607B
:10082000AD02554601D5164300E096432E604D6853
:10083000DBF80060AD035D4601D5164300E096434A
:100840002E604D68DEF80060ED03754601D5164355
:1008500000E096432E60641C0D682A46E5407FF454
:1008600031AFBDE8F88F000008040140000011100E
:10087000001002400000014000080140000C01404F
:1008800000100140001401408068084000D00120A1
:1008900070470AB1016170470904FBE701488068AD
:1008A000704700007000002070B5040025D094F857
:1008B0003D00002520B984F83C50204600F050F956
:1008C000242084F83D002068016821F001010160C6
:1008D0002068016841F4004101602068016821F44A
:1008E0000041016000F0A8FA4D4A6168914201D8C8
:1008F0004C4900E04C49884201D2012070BD4B496F
:100900002368B0FBF1F15E6826F03F060E435E609F
:100910006368934206D94FF4967359434FF47A7340
:10092000B1FBF3F12368491C1E6A26F03F063143F0
:1009300019626168914210D84900401EB0FBF1F283
:10094000521CC2F30B02042A01D2042022E0B0FBA5
:10095000F1F0401CC0F30B001CE0A268F2B301EB05
:10096000C10303EB0116431EB3FBF6F35B1C43F418
:1009700080431B0549D092B301EBC10202EB011188
:10098000401EB0FBF1F0401CC0F30B0040F480406F
:1009900040F400402168CA694CF6FF739A43104343
:1009A000C861D4E9071001432068026822F0C00240
:1009B00011430160D4E9030101432068826848F2D1
:1009C000FF339A4311438160D4E90501084321684C
:1009D000CA6822F0FF021043C86001E00EE016E092
:1009E0002068016841F0010101602564202084F83D
:1009F0003D00256384F83E50002070BD01EB4106A8
:100A0000431EB3FBF6F35B1CB3E70120C2E701EB27
:100A10004101401EB0FBF1F0401CC0F30B00B7E7F2
:100A2000A086010080841E0000093D0040420F00A6
:100A30002DE9FF4F83B09A46DDE9119793460446AE
:100A4000DDF84080FFF72AFF054694F83D00202896
:100A50007FD11923012240492046009500F07EFDF8
:100A6000002876D194F83C00012872D0012084F847
:100A70003C0020680168C90703D1016841F0010109
:100A800001602068016821F400610160212084F880
:100A90003D00402084F83E0000262664C4F82480EF
:100AA000A4F82A90608D20852C48E062CDE900757D
:100AB00053465A462046049900F0D0FC70B930E005
:100AC0002A463946204600F0EFFD58B1206C042834
:100AD00004D12068016841F400710160012007B071
:100AE000BDE8F08F606A216800780861606A401C88
:100AF0006062218D491E89B22185628D521E6285F8
:100B000022685369DB435B070BD469B1007810613D
:100B1000606A401C6062208D401E2085608D401EF2
:100B20006085208D0028CBD12A463946204600F02A
:100B3000E9FC0028CAD154F83D0B016841F400716A
:100B40000160202004F81E09E67766770020C6E7DA
:100B5000FFE70220C3E70000020010000000FFFFD3
:100B600010B586B0002100910191029103910068B7
:100B70001349884222D1134CA06940F00800A061BB
:100B8000A069694600F0080004904FF4407000909E
:100B900012200190032003900B48FFF785FD0B48BE
:100BA000416841F0E06141F002014160E06940F4D8
:100BB0000010E061E06900F40010049006B010BD80
:100BC0000054004000100240000C014000000140B1
:100BD00002488168027811448160704770000020EB
:100BE000074810B5016841F010010160032000F0D2
:100BF00075F80E2000F006F800F024F8002010BD73
:100C00000020024070B50D4D04464FF47A712878EB
:100C1000B1FBF0F00A490968B1FBF0F000F0D2FA3C
:100C200048B9102C07D200222146501E00F036F899
:100C300000206C6070BD012070BD000070000020BD
:100C40007C0000200C4808B5816941F001018161F8
:100C5000816901F001010091C16941F08051C161D8
:100C6000C06900F0805000900448416821F0E061C4
:100C700041F00071416008BD0010024000000140D9
:100C8000002809DB00F01F0201219140400980008B
:100C900000F1E020C0F8001170470000F0B40E4BE6
:100CA0001B680C46C3F30223C3F10705042D00D9CA
:100CB0000425191D072901D2002300E0DB1E0126AF
:100CC00006FA05F1491E214099409E40761E1640C5
:100CD0003143F0BC01F092B90CED00E0064900F0A0
:100CE000070208684FF6FF03184040EA0220034A53
:100CF00010430860704700000CED00E00000FA05AA
:100D00002DE9F0470F46050061D0434E306800F0F2
:100D10000700B84209D2306820F00700384330603D
:100D2000306800F00700B84251D128683B4C810779
:100D300012D5400703D5606840F4E0606060287811
:100D4000000703D5606840F4605060606068A9687F
:100D500020F0F000084360602878C00728D0686859
:100D6000012810D02168022810D0890700292EDA26
:100D7000616821F0030101436160FFF78FFD804648
:100D800041F288390DE021688903EFE78901EDE739
:100D9000FFF784FDA0EB0801494502D90320BDE817
:100DA000F0876068696800F00C00B0EB810FEFD14C
:100DB000306800F00700B8420BD9306820F0070017
:100DC00038433060306800F00700B84201D001209D
:100DD000E5E72878400705D56068E96820F4E06019
:100DE000084360602878000706D56068296920F408
:100DF000605040EAC100606000F02EF86168084A67
:100E0000C1F30311515CC8400649086006480068F8
:100E1000FFF7F8FE0020C2E7002002400010024069
:100E2000286E00087C000020740000200148006843
:100E3000704700007C0000200448054900684968AC
:100E4000044AC1F30221515CC84070477C00002075
:100E500000100240386E00080E4A51680E4801F03A
:100E60000C03042B11D0082B0FD10C48C1F3834382
:100E7000C903C05C0AD55168084AC1F34041921EBB
:100E8000515C054A5043B0FBF1F0704704494843B8
:100E9000704700000010024000127A00186E00082F
:100EA00000093D002DE9F84F040070D02078C04DB6
:100EB000C00749D06868C0F38100012807D068687E
:100EC000C0F38100022809D16868C00306D52868EC
:100ED000800339D560680028E7D035E06068B0F558
:100EE000803F0BD010B1B0F5A02F11D0286820F4AE
:100EF00080302860286820F4802002E0286840F4D0
:100F000080302860606890B1FFF7C8FC06460AE0B0
:100F1000286840F480202860F0E700BFFFF7BEFC9F
:100F2000801B642873D828688003F7D50CE0FFF78E
:100F3000B5FC064605E000BFFFF7B0FC801B642847
:100F4000F0D828688003F7D420789A4E80074FF0B5
:100F500001094FF0000839D5686810F00C0F07D070
:100F60006868C0F38100022809D16868C00306D40C
:100F70002868800714D52069012808D110E020696D
:100F8000B0B1C6F80090FFF789FC074605E00AE11A
:100F9000FFF784FCC01B0228C4D828688007F7D557
:100FA0002868616920F0F80040EAC10028600DE07F
:100FB000C6F80080FFF772FC074604E0FFF76EFCFE
:100FC000C01B022823D828688007F7D420780007A0
:100FD0002CD57948A169D9B1C0F80090FFF75EFC23
:100FE000074604E0FFF75AFCC01B02280FD8686AC6
:100FF0008007F7D571484FF4FA510068B0FBF1F063
:10100000009000BF0098411E0091FAD20EE080E0EF
:10101000C0F80080FFF742FC074604E0FFF73EFC03
:10102000C01B022875D8686A8007F7D4207840076B
:1010300060D5E8690027C00008D4E86940F0805016
:10104000E861E869012700F0805000905C48016881
:10105000C90513D40168834641F480710160FFF72C
:101060001DFC824606E000BFFFF718FCA0EB0A005B
:1010700064284ED8DBF80000C005F5D5E0680128EB
:101080000AD008B1052813D0286A20F00100286290
:10109000286A20F0040002E0286A40F0010028627B
:1010A000E06841F2883B98B1FFF7F8FB82460BE01D
:1010B000286A40F004002862EEE700BFFFF7EEFB6D
:1010C000A0EB0A0159455AD8286A8007F6D50CE0EA
:1010D000FFF7E4FB824605E0FFF7E0FBA0EB0A0127
:1010E00059454CD8286A8007F6D41FB1E86920F02A
:1010F0008050E861E06988B36968C1F38101022921
:1011000044D00228C6F8608004D0FFF7C7FB04462D
:1011100038E034E0FFF7C2FB074604E0FFF7BEFB10
:10112000C01B02282BD828688001F7D4206AB0F5AC
:10113000803F05D16868A16820F4003008436860EA
:10114000D4E908010843696821F474110843686010
:10115000C6F86090FFF7A2FB044606E025E000BF5A
:10116000FFF79CFB001B022809D828688001F7D5EF
:101170001BE000BFFFF792FB001B022802D90320EF
:10118000BDE8F88F28688001F4D40EE00128F7D07C
:101190006868226A00F48031914204D1616A00F4E7
:1011A0007010884201D00120EAE70020E8E7000043
:1011B0000010024000004242800442427C000020B5
:1011C0000070004010B5401EB0F1807F01D30120B7
:1011D00010BD4FF0E02460610F21601700F00EFF9A
:1011E0000020A06107202061002010BD70B590F89C
:1011F0003C20012A26D0012480F83C40022280F8BD
:101200003D2003685A689D6822F070060A683243E0
:101210005A600D4B02689A4208D0B2F1804F05D057
:101220000A4B9A4202D00A4B9A4204D1496825F0EF
:1012300080031943916080F83D40002180F83C1004
:10124000084670BD022070BD002C01400004004023
:101250000008004010B5040003D094F83D0010B120
:1012600007E0012010BD002084F83C00204600F07B
:101270001FF8022084F83D00211D206800F01EFEAA
:10128000012084F8460084F83E0084F83F0084F88A
:10129000400084F8410084F8420084F8430084F858
:1012A000440084F8450084F83D00002010BD000093
:1012B00008B500680649884208D10648C16941F06E
:1012C0000201C161C06900F00200009008BD000089
:1012D000000400400010024090F83D10012901D0A8
:1012E00001207047022180F83D1000680B498842B8
:1012F00008D0B0F1804F05D00949884202D0094991
:10130000884204D1816801F00701062903D00168F1
:1013100041F001010160002070470000002C0140F5
:10132000000400400008004001680A6A41F21113FD
:101330001A4207D10A6A9B101A4203D10A6822F0A6
:1013400001020A60012180F83D100020704770B54D
:10135000044690F83C000025012817D0012684F8A7
:101360003C60022084F83D002068826822F0770209
:1013700022F47F4282600868502838D00DDC202893
:101380004FD005DC90B3102811D14AE0022070BD87
:10139000302846D040280AD13BE060282FD0702862
:1013A0000DD0B0F5805F03D0B0F5005F12D00125FD
:1013B00084F83D60002084F83C00284670BDCB686E
:1013C000D1E90121206800F0B5FD2068816841F075
:1013D000770109E0CB68D1E90121206800F0AAFD7E
:1013E0002068816841F480418160E1E719E0CA68C2
:1013F0004968206800F0B0FD5021206806E0CA6806
:101400004968206800F0B9FD6021206800F09CFD6B
:10141000CEE7CA684968206800F09EFD4021206838
:10142000F4E7226801461046F0E7FEE701684A69E2
:10143000D24352050FD46FF480624A61002140F814
:10144000301F202242738173026942F0040202615C
:101450000173012070470020704700002DE9F84318
:10146000044600680D46DDE908970168984616466F
:1014700041F4807101604B4600224FF0011120467B
:10148000009700F06BF848B120680068C00502D5ED
:101490004FF4007020640320BDE8F883216805F054
:1014A000FE0008613B464A461549204600F09EF87A
:1014B00088B920684169806900903A4649462046CB
:1014C00000F0F2F848B1206C042804D120680168CB
:1014D00041F4007101600120DEE7F5B2B8F1010FBF
:1014E00009D02168300A08613A464946204600F092
:1014F000DBF80028E7D1206805610020CCE7000078
:101500000200010070B516460D4604461EE0204656
:10151000FFF78CFF08B1012070BD681C16D0FFF7E3
:10152000BDF9801BA84200D885B920684069C04336
:1015300040070BD5002044F8300F20216173A073C1
:10154000216941F0200121612073E4E720684069AE
:10155000C0434007DBD4002070BD00002DE9F047F8
:10156000984617460D460446C1F30746DDF820901D
:101570002AE000BFB8F1FF3F26D0FFF78FF9A0EBBC
:101580000901414502D8B8F1000F1DD12068012E94
:1015900016D0806925EA00000004000C12D000205B
:1015A000B84211D1002044F8300F20216173A0739C
:1015B000216941F02001216120730120BDE8F087FD
:1015C0004069E7E70120EBE72068012E0AD0806937
:1015D00025EA00000004000C06D00020B842C9D063
:1015E0000020EBE74069F3E70120F7E72DE9F0473A
:1015F000984616460D4604464FF000094FF0200A63
:10160000C1F3074723E020684069C043400515D473
:101610002068016841F40071016021686FF4806006
:101620004861C4F8309084F83DA084F83E90216C65
:1016300041F00401216484F83C9021E0701C06D044
:10164000FFF72CF9A0EB0800B04203D816B1012F28
:101650001FD021E02068012F15D0806925EA000005
:101660000004000C18D000BF44F8309F84F80DA08F
:1016700084F80E90216941F02001216184F80C90DA
:101680000120BDE8F087406925EA00000004000C55
:10169000EAD12068406901E02068806925EA0000FD
:1016A0000004000CAFD1ECE770B516460D460446B9
:1016B0001EE02046FFF7BAFE08B1012070BD681C8D
:1016C00016D0FFF7EBF8801BA84200D885B9206838
:1016D0004069C04300060BD5002044F8300F20219C
:1016E0006173A073216941F0200121612073E4E757
:1016F00020684069C0430006DBD4002070BD0000B4
:1017000010B50E4C002208212046FFF7C2F800F069
:1017100017F8012210212046FFF7BBF800F010F85F
:10172000002210212046FFF7B4F800F009F8204607
:101730000122BDE810400821FFF7ABB8000C0140C2
:101740000020401CC0B20A28FBD370470C4800B5EB
:10175000816985B041F0080181618069694600F0C6
:10176000080004901820009003200390112001909D
:101770000448FEF799FF00F09DF805B000BD000099
:1017800000100240000C014010B50C4C0122082151
:101790002046FFF77EF8FFF7D3FF012210212046F5
:1017A000FFF777F8FFF7CCFF002210212046FFF764
:1017B00070F8BDE81040FFF7C3BF0000000C014007
:1017C0002DE9F0410024134E074625466006040E1D
:1017D000012210213046FFF75CF8FFF7B1FF082126
:1017E0003046FFF751F808B1641CE4B20022102122
:1017F0003046FFF74EF8FFF7A3FF6D1CEDB2082D42
:10180000E4D327B1FFF77CFF2046BDE8F081FFF766
:10181000BBFFF9E7000C014070B5154E05460024EA
:10182000280601D5012200E0002208213046FFF7FA
:1018300030F8FFF785FF012210213046FFF729F825
:10184000FFF77EFF002210213046FFF722F8072C19
:1018500004D1012208213046FFF71BF86806050E67
:10186000FFF76EFF641CE4B2082CD9D370BD0000F2
:10187000000C014010B50E4C012208212046FFF754
:1018800008F8012210212046FFF703F8FFF758FF60
:10189000002208212046FEF7FCFFFFF751FF00223F
:1018A00010212046FEF7F5FFBDE81040FFF748BFC6
:1018B000000C014010B50A4C002208212046FEF71A
:1018C000E8FF012210212046FEF7E3FFFFF738FF73
:1018D00020460122BDE810400821FEF7DABF0000D3
:1018E000000C014070B5104D012208212846FEF77A
:1018F000D0FFFFF725FF012210212846FEF7C9FF80
:10190000FFF71EFF08212846FEF7BEFF08B101249D
:1019100000E00024002210212846FEF7BAFFFFF75E
:101920000FFF204670BD0000000C014010B5FFF70E
:101930000DFF80216B2000F0C0F86420FEF76EFEE2
:1019400000216B2000F0B9F8032000F082F800209D
:1019500000F07AF8C82000F099F80021382000F053
:10196000ACF800216A2000F0A8F80021232000F044
:10197000A4F88021372000F0A0F8752000F011F8BD
:10198000682801D0012010BD01216B2000F095F8DE
:1019900000216C2000F091F8642000F077F800201E
:1019A00010BD10B50446FFF765FFD020FFF734FFE8
:1019B000FFF798FF2046FFF72FFFFFF793FFFFF792
:1019C00059FFD120FFF728FFFFF78CFF0020FFF71A
:1019D000F7FE0446FFF76EFF204610BD2DE9F041EB
:1019E0001D4614460F460646FFF744FF7006000EDC
:1019F000FFF712FFFFF776FF20B1FFF75BFF012033
:101A0000BDE8F0813846FFF707FFFFF76BFFFFF7F0
:101A100031FF012000EB4600C0B2FFF7FDFEFFF7EB
:101A200061FF09E0012C0DD05FF00100FFF7C8FE57
:101A3000641E05F8010BE4B2002CF3D1FFF73AFF66
:101A40000020DDE70020F1E7C006010E1C2000F0B9
:101A500034B8C006010E1B2000F02FB8BC2801D3FB
:101A6000012110E0622801D302210CE02A2801D3D1
:101A7000032108E0142801D3042104E00A2801D33B
:101A8000052100E006211A2000F017B810B5044621
:101A90004FF47A70844201D9044602E0042C00D24B
:101AA0000424B0FBF4F0401EC1B2192000F005F888
:101AB0006008BDE81040FFF7D1BF70B50C46054681
:101AC000FFF7D8FED020FFF7A7FEFFF70BFF50B9B6
:101AD0002846FFF7A1FEFFF705FF2046FFF79CFE13
:101AE000FFF700FF18B1FFF7E5FE012070BDFFF71B
:101AF000E1FE002070BD2DE9F0411E4615460F465F
:101B00000446FFF7B7FE6006000EFFF785FEFFF7FD
:101B1000E9FE60B93846FFF77FFEFFF7E3FE0024D9
:101B20000CE0305DFFF778FEFFF7DCFE20B1FFF739
:101B3000C1FE0120BDE8F081641CE4B2AC42F0D3E8
:101B4000FFF7B8FE0020F5E72DE9F04186B000244C
:101B500034480094019402940394816941F0100187
:101B60008161816901F010010491816941F02001D6
:101B70008161816901F020010491816941F00401D2
:101B80008161816901F004010491816941F00801DA
:101B900081618069012200F00800234E5503049002
:101BA00029463046FEF775FE204F002208213846B0
:101BB000FEF76FFEDFF87880002218214046FEF71E
:101BC00068FE0220CDE90240009501256946019595
:101BD0003046FEF769FD042000901648CDE9010467
:101BE00069463846FEF760FD08200326CDE900056A
:101BF000CDE9024669463846FEF756FD1820CDE984
:101C00000005CDE9024669464046FEF74DFD00223B
:101C100011460820FFF742F80820FFF731F806B018
:101C2000BDE8F081001002400010014000080140B2
:101C3000000C0140000031100D4810B50B49016047
:101C40000C49416000214FF480428160C0E90312D9
:101C500041618161C1610162FEF726FE002803D067
:101C6000BDE81040FEF7C2BC10BD000000540040AB
:101C7000B0000020A086010010B586B000241748EF
:101C80000094019402940394049413490594016010
:101C90004721C0E901144FF6FF71C0E903148461C4
:101CA000FFF7D8FA08B1FEF7A1FC4FF4805000907E
:101CB00069460A48FFF74BFB08B1FEF797FC04940E
:101CC00004A906480594FFF791FA002801D0FEF711
:101CD0008DFC06B010BD000000040040040100208F
:101CE000FEE7FEE770B5002404F1B000C0B200F0DA
:101CF0008DF8002000F08AF8102000F087F8002509
:101D0000002000F095F86D1CEDB2802DF8D3641C16
:101D1000E4B2082CE8D370BD10B5C820FEF77EFCF5
:101D2000BDE8104000F03CB910B50446B031C8B26F
:101D300000F06CF8102040EA141000F067F804F08E
:101D40000F00BDE8104000F061B800002DE9F0413F
:101D5000203A00240D468046D6B27F2803D90020C1
:101D60008D1C8046EDB2102B29460FD0FFF7DCFF0B
:101D7000164906EB460001EB4005285D00F058F8D7
:101D8000641CE4B2062CF8D3BDE8F081FFF7CCFF69
:101D90000F4F00BF04EB0610385C00F049F8641CDC
:101DA000E4B2082CF6D36D1CE9B24046FFF7BCFF45
:101DB0005FF0000404EB06103844007A00F038F8B5
:101DC000641CE4B2082CF5D3DEE7000006580008D6
:101DD0002E5A00082DE9F041984617460E46044653
:101DE00000250DE0434631462046FFF7AFFF08349B
:101DF000E4B2782C02D90024B61CF6B26D1CEDB208
:101E00007A5D002AEED1BDE8F081000001B584B012
:101E100001214FF4807204A88DE807000B460022D0
:101E200078210248FEF704FE05B000BDB000002096
:101E300001B584B001214FF4807204A88DE8070039
:101E40000B46402278210248FEF7F2FD05B000BDA6
:101E5000B000002070477047FEF7BABE30B58FB0B3
:101E600028216846FEF77DFA14210AA8FEF779FAC0
:101E700001210804CDE900100024029402250491F8
:101E8000CDE907504FF4E01009906846FFF70AF8D3
:101E900008B172B6FEE70F20CDE90A054FF4806065
:101EA000CDE90C4002210AA80E94FEF729FF002874
:101EB00001D072B6FEE70FB030BD7047F0B50268D2
:101EC000194B1A4C1A4D4FF08047984205D0B84232
:101ED00003D0A04201D0A84203D122F070064A6884
:101EE0003243984205D0B84203D0A04201D0A84264
:101EF00003D122F44074CA6822434C6922F0800264
:101F0000224302608A68C2620A688262984201D1F2
:101F100009690163012141610169C90703D00169B0
:101F200021F001010161F0BD002C014000040040DE
:101F30000008004010B5846842EA032224F47F447C
:101F40000A432243826010BD826822F070020A4375
:101F500042F007018160704710B5036A046A24F0FB
:101F600001040462846924F0F00444EA021423F0BA
:101F70000A020A438461026210BD10B5036A046A52
:101F800024F010040462846923F0A00324F4704454
:101F900044EA023243EA01118261016210BDFEE7A8
:101FA000FEB50024094F4FF4807501263819CDE99C
:101FB000000601230022782102950548FEF738FD2E
:101FC000641CE4B21B2CF1D3FEBD00000000002015
:101FD000B0000020490050EAC12018BF04204A0D7B
:101FE00018BF40F0010040F2FF72B2EB515F08BF32
:101FF00040F00200012808BF052070470907090EBC
:10200000002804DB00F1E02080F80014704700F0A5
:102010000F0000F1E02080F8141D70472DE9F04119
:102020004F1E00EBC7010446D1E9000115461E46CC
:1020300037F006020DD02A46334602F063FD7F1EBC
:1020400004EBC703D3E9002302F054FB37F0060288
:10205000F1D1022F25D0042F13D0062F18BFBDE8D1
:10206000F0812A46334602F04DFDD4E90A2302F0FE
:1020700041FB2A46334602F045FDD4E9082302F02D
:1020800039FB2A46334602F03DFDD4E9062302F02F
:1020900031FB2A46334602F035FDD4E9042302F031
:1020A00029FB2A46334602F02DFDD4E9022302F033
:1020B00021FB2A46334602F025FDD4E90023BDE882
:1020C000F04102F017BB012203F031BB02F012BB5A
:1020D000002213461046114602F0BCBB024A002003
:1020E000110703F024BB000001FDFFFF2DE9FE4FA7
:1020F00007460E460025684601F058F800246FF0A8
:102100000F0AE8464FF0010957F8240056F824104A
:10211000401A00D5404203F061F9514603F035FB07
:1021200058F8241011F0FF4F0BD003F059F84FF07E
:102130007E5103F055FA0A4920F00040884205DC40
:1021400007E0084908440849884202D309FA04F024
:102150000543641C032CD7DB2846BDE8FE8F000036
:10216000295C0F3E666666C19A99D9002DE9F04D4B
:102170008D4F21F0004A86B005460C46BA452ADB51
:10218000AAEB070028430AD08848824501DC1AD10F
:10219000CDB106B02846BDE8F04DFFF794BF844AA4
:1021A000844B284602F0AEFC07460E46824A834B1B
:1021B0002846214602F0A6FC06B03A463346BDE862
:1021C000F04D02F097BA0120FEF771F906B0BDE8B4
:1021D000F04DFFF77DBF7A48824542DABAF1795F68
:1021E0000BDA2846FFF7F6FE042808BFFFF776FF54
:1021F000284606B02146BDE8F08D2A460B4610461B
:1022000002F080FC834602466E480E460B460621CD
:102210007844FFF703FF5A46334602F073FC8046CA
:1022200069488A465A46334604217844FFF7F6FE49
:102230005A46334602F066FC00223B4602F05AFA48
:1022400002460B464046514602F004FB2A4623460E
:1022500002F058FC06B02A462346BDE8F04D02F0D5
:1022600049BA284624F0004100223D463B4602F090
:1022700047FD4FF0FF3203F05AFA06460246534834
:102280000F460B4606217844FFF7C8FE32463B4610
:1022900002F038FCCDE900014D4832463B460421AE
:1022A0007844FFF7BBFE32463B4602F02BFC00228F
:1022B0002B4602F01FFA834602913046394602F05F
:1022C000C1F9804643480D46504517DCDDE9000161
:1022D0005A46029B02F0BEFA42462B4602F012FC1E
:1022E00042462B4602F006FA012203F020FA304A59
:1022F000304B02F0F7FD304A304B4CE04FF0000A13
:1023000052460B46404602F0F5F9CDE9031052461D
:102310002B461046194602F0F5FB32463B4602F0CA
:10232000EFFCDDE9033202F095FA06460F46DDE9DF
:1023300000015A46029B02F08DFA83460091012269
:102340003046394603F0F3F9194A1A4B02F0D8FC2B
:1023500006460F4601224046294603F0E8F95A4650
:10236000009B02F0CFFB32463B4602F0BBFD064627
:102370000F4601225046294603F0D9F90E4DDFF8E9
:1023800058802A46434602F0BBFC32463B4602F0E8
:10239000B7FC2A46434602F0B3FC002CD8BF81F0BC
:1023A000004106B0BDE8F08D0000F03F0000F07F76
:1023B000075C143326A6913C182D4454FB21F93FA9
:1023C0000000E03F2C4C0000424C0000B64B0000E7
:1023D000CC4B00003333EF3FFB21E93F2DE9F84FB1
:1023E00004460D4621F0004000917349814211DC02
:1023F0007249884201DC06D12CB120462946BDE84D
:10240000F84FFFF760BE6E48002DCCBF6D496E4996
:10241000BDE8F88F6D49814211DD6D498142D8BF19
:102420004FF0FF366DDD20462946FFF7D3FD042827
:1024300008BFFFF753FE20462946BDE8F88F6549DF
:10244000654F25F00045814233DD6449814219DD45
:10245000002632464FF080432046294602F04AF9D2
:1024600080468A4601222046294603F060F9002270
:102470003B4602F037FD4246534602F0EBF9044674
:102480000D463EE001260022BA463B46204629463C
:1024900002F030F980460F46002253462046294676
:1024A00002F020FD42463B4602F0D4F904460D46B8
:1024B00027E04B4981421BDDDFF828A102260022DC
:1024C00053462046294602F01DFB00223B4602F0FF
:1024D00011F980460F46002253462046294602F055
:1024E00001FD42463B4602F0B5F904460D4608E0C0
:1024F000032622462B4600203B4902F0ABF9044656
:102500000D4622462B461046194602F0FBFA8B4632
:10251000824602460B4602F0F5FA07460246334869
:1025200088460B4606217844FFF778FD52465B4605
:1025300002F0E8FA82462E488B463A464346052189
:102540007844FFF76BFD3A46434602F0DBFA024659
:102550000B46002E504659460CDA02F0CBF82246C4
:102560002B4602F0CFFA01B022462B46BDE8F04FD1
:1025700002F0C6BB02F0BEF822462B4602F0C2FAB9
:102580001C4A7A4402EBC603D3E9002302F0AAFCFA
:1025900022462B4602F0A6FC174A7A4402EBC603F9
:1025A000D3E9002302F0ACFB009A002AB8BF81F007
:1025B0000041BDE8F88F0000000010440000F07FEB
:1025C000182D4454FB21F93FFB21F9BF0000DC3FEB
:1025D0000000203E0000F33F0000F03F0000E63F17
:1025E000008003400000F83F0000F0BFCE4900002B
:1025F0008C4900002A490000F24800002DE9F04D06
:102600009446CCF1000423F000464CEA0404524FF7
:1026100046EAD4749A46884621F00042BC4206D865
:10262000454240EA050442EAD474BC4204D9BDE8FC
:10263000F04D6246FFF74ABDAAF14055A5F17F650E
:1026400055EA0C040BD0022404EAAA74434DDFF8C7
:1026500010E144EAD87452EA000B04D00CE0BDE863
:10266000F04DFFF7BBBE002C14BF012CBDE8F08D70
:10267000022C30D0032C32D056EA0C0B0AD0BE42CA
:1026800020D1BA4209D126F0804622F0804233465A
:10269000114617E000291ADB25E0DFF8C8B0FB443B
:1026A000002C04BFDBE90001BDE8F08D012C02BF66
:1026B000DBE9000181F00041BDE8F08D022C0AD079
:1026C000032C0CD0BA4212D1B8F1000F0BDA234818
:1026D0002549BDE8F08D28462449BDE8F08D2846FF
:1026E0007146BDE8F08D1D482149BDE8F08D921B73
:1026F00012153C2AC4BF19481D490EDCBAF1000F5F
:10270000BEBF12F13C0F0020014606DB624602F01C
:10271000A1F821F00041FFF761FE002C08BFBDE8E1
:10272000F08D012C04BF81F00041BDE8F08D114A0D
:10273000114B022C07D002F0D5FB2A46BDE8F04D24
:102740000A4B02F0CFBB02F0CDFB2A46BDE8F04DAC
:10275000064B02F0D5BA00000000F07F182D44545B
:10276000FB2109C086480000FB21F9BFFB2109407D
:10277000FB21F93F075C143326A6A13C10B50446A3
:10278000FEF754FB0349B0FBF1F16143491EFDD252
:1027900010BD000000093D0008B560B120208DF893
:1027A000000028208DF8010030208DF8020038202C
:1027B0008DF8030004E0A32204216846FDF7C9FD5B
:1027C0006A46042140F69E2001F0A6FE01F064FB5B
:1027D00008BD00003EB5044602208DF80000CA2066
:1027E0008DF80100E3208DF8020009208DF8030028
:1027F0006A460421682001F08FFEA3208DF80000B6
:10280000610609D5C0218DF80110C8218DF802108C
:10281000C2218DF8031005E08DF801008DF802004B
:102820008DF8030014F4C07F09D0C4218DF8041082
:10283000CC218DF80510C6218DF8061005E08DF825
:1028400004008DF805008DF806008DF808008DF85D
:1028500007008DF809006A460A2140F6A72001F01A
:102860005BFEA0074FF0D80503D020208DF80000B4
:1028700001E08DF800506A46012140F6B62001F0D3
:102880004BFEA00601D5012000E0002000F08EF8EC
:1028900014F4C07F1ED0E0050AD5B2208DF80000E8
:1028A0008B208DF80100B6208DF802009B2009E0F6
:1028B000B0208DF8000080208DF80100B4208DF844
:1028C000020090208DF803006A46042140F6A22001
:1028D00001F022FEE1074FF40B6022D0F8218DF8C1
:1028E00000106A46012101F017FEFA21072000F0CE
:1028F00039FB072000F004FB012000F021FB6420DD
:1029000000F0C4FB4FF4FA7000F0D0FBC82125485A
:1029100000F0BEFA282000F0D3FA0A2000F0E0FA16
:1029200005E08DF800506A46012101F0F5FDA00791
:1029300003D5D9208DF8000001E08DF800506A46DB
:10294000012140F23D7001F0E7FD600701D5012053
:1029500000E0002000F048F8E00601D5012000E08A
:102960000020FFF719FF104D44F00800688101F0C6
:1029700093FA0020A873600601D50620A87314F40A
:10298000C07F02D0A87B801DA87314F0140F02D062
:10299000A87B1030A873A00702D0A87B001DA873E5
:1029A00000203EBD09E3CA02800000200EB54FF4AE
:1029B000976310B106A107C901E008A207CA8DE814
:1029C00007006A460921184601F0A6FD0EBD000069
:1029D000B8AAB38DB4980D355D000000B8AAAAAAB4
:1029E000B088C3C5C700000008B560B1C0208DF82D
:1029F0000000C2208DF80100C4208DF80200C6201E
:102A00008DF8030004E08B2204216846FDF7A1FC49
:102A10006A46042140F6982001F07EFD01F03CFA60
:102A200008BD0000C8234FF48062024940F6F6302A
:102A300001F014B9206200082DE9FF4F89B0174654
:102A4000DDE9165200244C4E884681462C80A24671
:102A5000B07B694601F0AEF94FF0FF3B18B1584624
:102A60000DB0BDE8F08F708910F0140F3CD00099C4
:102A700009BA21F0FF039DF803100B433B60019955
:102A80001B1409BA21F0FF029DF807105B430A43AB
:102A90007A6002999DF80B4009BA21F0FF012143A9
:102AA000B960039C091424BA24F0FF0C9DF80F4070
:102AB00012144CEA040CC7F80CC04FEA2C474943E7
:102AC00002FB023207FB071111441024A1F17061CF
:102AD000B1F1007F04D901F0DFF9A5F800A0BEE74D
:102AE000298841F4807129804206694611D50A1966
:102AF000A41D13885BBAA8F8003053885BBAA8F805
:102B00000230928852BAA8F804202A8842F00802BB
:102B10002A8010F4C07F11D00A19A41D13885BBA53
:102B2000A9F8003053885BBAA9F80230928852BAEB
:102B3000A9F804202A8842F070022A80800716D063
:102B40000C44E07800F0C00500F03F016078C00759
:102B500006D0C80801F007013268491C02B190474D
:102B60006078000703D5716809B1A80988470C98F7
:102B700000F0F6FD002073E7800000202DE9FF4102
:102B8000044603A800F052FFBDF80C00410CC3033B
:102B90002F48028902F00300550754F8200000D5A1
:102BA0004042C2F3C105960654F8255000D56D4247
:102BB000C2F38116D20554F8264000D56442A0FB2A
:102BC0000367C21702FB037200FB0120820042EA86
:102BD0009670A5FB0367EA1702FB037205FB01224F
:102BE000950045EA9672A4FB0367E51705FB03739E
:102BF00004FB01318B0043EA9671030E8DF800301F
:102C0000030C8DF80130030A8DF802308DF80300B3
:102C1000100E8DF80400100C8DF80500100A8DF8C8
:102C20000600080E8DF80800080C8DF80900080A47
:102C30008DF80A008DF807208DF80B106A460C21DC
:102C40004FF4257001F068FC04B0BDE8F08100008D
:102C50008000002030B5044613A285B007CA8DE875
:102C600007004FF0FF35C82C16D8C820B0FBF4F190
:102C7000491E080A8DF80C008DF80D1003AA0221D8
:102C800040F2162001F048FC30B96A460C2140F6AB
:102C9000C12001F041FC10B1284605B030BD054807
:102CA00084810020F9E70000FEF2ABC4AAF1DFDF67
:102CB000BBAFDFDF80000020F8B53049098901F0A3
:102CC000030250F822404A0700D56442C1F3C10212
:102CD0008B0650F8222000D55242C1F3811350F8E0
:102CE0002330C80500D55B42254984FB014085009F
:102CF00045EA947082FB0142A40F44EA820483FBFC
:102D00000121950F45EA8105010E8DF80010010C97
:102D10008DF80110010A8DF802108DF803006A4643
:102D200004214FF4747001F0F7FB4FF0FF3688B9BF
:102D3000200E8DF80000200C8DF80100200A8DF87F
:102D400002008DF803406A4604214FF4757001F0CB
:102D5000E3FB08B13046F8BD280E8DF80000280CC2
:102D60008DF80100280A8DF802008DF803506A469C
:102D700004214FF4767001F0CFFBF8BD80000020F5
:102D800009E3CA022DE9FF4104463CA004F0030315
:102D9000006802903AA0006803903AA006683AA042
:102DA000056802A8C15C8DF80010C4F3C101425C43
:102DB0008DF80120C4F38112805C8DF8020003A815
:102DC000C35C8DF80430415C8DF80510805C8DF893
:102DD00006006A46032140F2264001F09DFB4FF0B9
:102DE000FF37E0BB01AA032140F22A4001F094FB27
:102DF000A8BBCDE9006560070BD59DF8000040F049
:102E000001008DF800009DF8040040F001008DF8ED
:102E10000400A0060BD59DF8010040F001008DF8DC
:102E200001009DF8050040F001008DF80500E00567
:102E30000BD59DF8020040F001008DF802009DF8CE
:102E4000060040F001008DF806006A4603214FF4A9
:102E5000886001F061FB10B901AA032100E004E0E1
:102E600040F2314001F058FB18B1384604B0BDE8DB
:102E7000F081064804810020F8E700004CCD6C008A
:102E80000CC92C00365676002646660080000020CD
:102E90004FF47A7290FBF2F008B54843010E8DF8BA
:102EA0000010010C8DF80110010A8DF802108DF848
:102EB00003006A4604214FF4AE7001F02DFB08BDFB
:102EC0000521B0FBF1F008B5010A8DF800108DF86E
:102ED00001006A4602214FF4AD7001F01DFB08BDF0
:102EE0000521B0FBF1F008B5010A8DF800108DF84E
:102EF00001006A4602214FF4AC7001F00DFB08BDE1
:102F000008B500218DF80010C10702D030218DF8DE
:102F10000010810705D59DF8001041F00C018DF8D7
:102F20000010400705D59DF8000040F003008DF823
:102F300000006A4601214FF4A47001F0EDFA08BDCB
:102F400008B560B1042800D90420401E8DF80000A7
:102F50006A46012140F24F1001F0DEFA08BD01205F
:102F6000F3E700002DE9FC41054640074FF0FF362E
:102F70007CD0B1F5C86F79D8084602F047FA3E49CF
:102F800002F02EF9074601A800F032FD9DF804007A
:102F9000022806D004280DD008282ED0102865D18C
:102FA00034E00E21384602F0F0FB02F0F7F984B26B
:102FB000324907E00D21384602F0E7FB02F0EEF956
:102FC0002F4984B2384602F035FA02F0E7F9210AB7
:102FD0008DF8001080B28DF80140010A8DF80210C2
:102FE0008DF80300E8076C4620D0224602214FF4FA
:102FF000EA7001F091FAC8BB11E00C21384602F0EA
:10300000C4FB02F0CBF984B21E49DBE70B21384642
:1030100002F0BBFB02F0C2F984B21B49D2E7A21C4A
:1030200002214FF4927001F077FAF8B9A8070DD594
:103030006A4602214FF4EC7001F06EFAB0B9A21C9E
:1030400002214FF4947001F067FA78B9680710D53F
:103050006A4602214FF4EE7001F05EFA30B9A21C0C
:1030600002214FF4967001F057FA10B13046BDE8D6
:10307000FC810020FBE700000000484300004046C0
:103080000000C045000040450000C0440521B0FBE1
:10309000F1F008B5010A8DF800108DF801006A46BC
:1030A00002214FF4EF7001F037FA08BD0521B0FBA3
:1030B000F1F008B5010A8DF800108DF801006A469C
:1030C00002214FF4ED7001F027FA08BD2DE9FE4F03
:1030D00090460E4604464FF0000910F1FF4F03D30F
:1030E0004FF0010924F00044204602F03BF9054668
:1030F00002F074F9214602F069FA01240027DFF892
:10310000A8A006E0514602F095F904EB84014C00BA
:103110007F1C4745F6DB4FF07C5101F0F9FF02F0D0
:1031200021F94FF0000C0346CDF800C0CDF804C0E3
:1031300060466A460A21CDF808C075B930208DF87E
:10314000000001200BE000BF95FBF1F701FB1757D2
:1031500095FBF1F530371754401C002DF4DC0025A9
:10316000B9F1000F02D02D2535700125401E05D480
:10317000175C7755401E05F10105F9D52E207055D5
:1031800000200AE094FBF1F493FBF4F292FBF1F7D8
:1031900001FB172230327255401C6D1C4045F1DB9B
:1031A00006F805C0BDE8FE8F000020412DE9FE4372
:1031B0000646264801AB042240680D210078FEF740
:1031C0000DFC10B10720BDE8FE839DF804101C2003
:1031D00000EAD1029DF80710DFF87490C1F30113E3
:1031E0001A438DF800209DF80520C1F3810300EA01
:1031F000D2021A438DF801209DF8062001F0030148
:1032000000EAD20008430024124F8DF80200A046C5
:103210006D46285D10B146F824900AE046F82480F7
:103220000DE000BF56F82400394602F003F946F8D5
:103230002400285D401E10F0FF002855F2D1641CC8
:10324000E4B2032CE5D30020BDE700001C00002001
:103250007B14AE3E1D5A843F2DE9FE4F05460120EA
:10326000C14E8DF800004FF000088DF801803068E5
:103270000C461746817C70686B4602220078FEF788
:103280003AFC4FF0FF3A00287AD1C820FDF7C6F982
:103290008DF8008030686B460122C17B7068007831
:1032A000FEF729FC0028EFD130686B4601224179F6
:1032B00070680078FEF71FFC0028E5D130686B4687
:1032C0000122817C70680078FEF715FC0028DBD1B4
:1032D00030686B460122C17D70680078FEF70BFCF8
:1032E0000028D1D130686B460122017970680078DE
:1032F000FEF701FC0028C7D14FF00C098DF80090B3
:1033000030686B460122017970680078FEF7F3FBA4
:10331000002835D10F20FDF781F9B06A6B460122F4
:10332000407A8DF800003068817870680078FEF788
:10333000E2FB002824D1B06A6B460122007A8DF8A6
:1033400000003068417870680078FEF7D4FB0028F0
:1033500073D1B06A807A0FB140F0E0008DF80000C0
:1033600030686B460122817970680078FEF7C3FBF4
:10337000002862D12FB1B06AC07A40F0E00001E0CD
:103380004AE018208DF8000030686B460122C179B0
:1033900070680078FEF7AFFBF0BB17B1C820FDF7EF
:1033A0003DF940208DF8000030686B46012201791C
:1033B00070680078FEF79FFB70BB78208DF80000E6
:1033C00030686B460122417970680078FEF793FB04
:1033D00010BB3220FDF722F98DF800803068474697
:1033E0006B464179706801220078FEF784FB98B93A
:1033F00031687068B046897A00786B460222FEF721
:10340000EDFA48B9BDF80000AF6040BAB0FBF9F082
:103410006F60C6B22F6000E00FE0A76067602760B2
:10342000002739E0D8F80010D8F804006B46C97AB4
:1034300000780C22FEF7D2FA10B15046BDE8FE8F9C
:10344000BDF80000236840BA02B2BDF80200BDF822
:1034500004101A44226040BA626800B210446060EE
:1034600049BAA06809B20844A060BDF806002B68FC
:1034700040BA02B2BDF808001A4440BA01B2BDF821
:103480000A002A606A6840BA11446960A96800B2FB
:1034900008447F1CFFB2A860B742C3D328688322C8
:1034A000C117090441EA104100040023FCF790FE13
:1034B00032460023FCF78CFE286068688322C1171F
:1034C000090441EA104100040023FCF781FE324662
:1034D0000023FCF77DFE6860A8688322C1170904F9
:1034E00041EA104100040023FCF772FE324600233B
:1034F000FCF76EFEA86020684FF40065C117090450
:1035000041EA104100042A460023FCF761FE3246DE
:103510000023FCF75DFE206060682A46C11709049D
:1035200041EA104100040023FCF752FE324600231A
:10353000FCF74EFE6060A0682A46C117090441EA04
:10354000104100040023FCF743FE32460023FCF741
:103550003FFEA060002802DDA0F5803001E000F50C
:103560008030A060002069E71C0000202DE9F84FA2
:1035700081462E488846002540686B460322007825
:103580000D21FEF72BFA10B10720BDE8F88F9DF84A
:103590000000002400F01F008DF800009DF80100DD
:1035A0006FF00F0B00F01F008DF801009DF8020076
:1035B0006E4600F01F008DF802004FF0010A00BFB8
:1035C00059F8241058F82400081A00D5404201F098
:1035D00005FF594602F0D9F80746305DC0B11448DE
:1035E00002E0144901F026FF315D491E11F0FF0190
:1035F0003155F6D10146384601F0F2FD4FF07E51CB
:1036000001F0EEFF0C4920F00040884205DC07E0A5
:103610000A483844B0F1D97F02D90AFA04F00543C8
:10362000641C032CCCDB2846AFE700001C00002004
:103630000000C84154E3853F295C0F3E0000E0BE16
:1036400000B5024600F00DF80346D01C00F009F862
:1036500043EAC003901D00F004F843EA801080B2F2
:1036600000BD90F90010002902DD4FF00000704706
:1036700002DA4FF00400704790F90110002902DDD2
:103680004FF00100704702DA4FF00500704790F9E3
:103690000200002802DD4FF00200704702DA4FF00E
:1036A000060070474FF0070070470000FDF798FADA
:1036B000FEF7D4FBFEF748FAFEF7BEFAFEF7DCFA97
:1036C000FEF72AFBFEF70EFBFEF730F900F042F999
:1036D000194C1A4D6420FCF7A1FF174A0832111F3C
:1036E000081F00F069F86068134980F0004002226A
:1036F0000C31FFF7EBFC104A11A10C321348FCF718
:103700008BFD1023114A02210020FEF763FBFCF71A
:103710006FFF094902220C312868FFF7D7FC064ADF
:103720000BA10C320948FCF777FD0C23074A042152
:103730000020FEF74FFBCDE7540000206C00002076
:10374000726F6C6C3A2573202020000090000020DE
:1037500064697374616E63653A25732020200000EC
:10376000704700002DE9F041124C20F001010025C6
:1037700094F8240010B10020BDE8F081A07A4FF049
:10378000FF3668B10840277C2074884200D0354657
:1037900041B1012000F02AFF00F07EFB38B1277410
:1037A0003046E9E7207D00B1012000F01FFF2846E8
:1037B000E2E700001C0000202DE9F74F8EB00CA9B5
:1037C00002A8CDE900010BAB03AA09A907A8FFF7DE
:1037D00033F918B1012011B0BDE8F08FBDF8080031
:1037E000C0057DD5039801F0F9FD6FF01D04214659
:1037F00001F0CBFF8246049801F0F0FD214601F074
:10380000C4FF8146059801F0E9FD214601F0BDFFA6
:103810008046069801F0E2FD214601F0B6FF05461C
:103820000121504601F0B1FF0646414601F002FE7B
:1038300004464FF04041484601F0FCFD074629464A
:1038400001F0F8FD214601F063FC01F035FCFEF7C4
:103850008DFC4FF0663B5A463D4B01F053F900F0AA
:1038600017FF0E9908600121404601F08EFF414686
:10387000009001F0DFFD04463846494601F0DAFDCC
:10388000214601F0ADFE4FF07E5101F041FC01F008
:1038900013FC07460C463046494601F0CBFD064670
:1038A0002946009801F0C6FD314601F031FC01F0D7
:1038B00003FC3A462346FEF7A1FE5A46244B01F08C
:1038C00021F900F0E5FE0F9908602946084601F04D
:1038D000B1FD07464146084601F0ACFD064600E052
:1038E00034E04946084601F0A5FD04465146084625
:1038F00001F0A0FD214601F00BFC314601F070FE05
:10390000394601F06DFE01F0D7FB06460C4629460C
:10391000504601F08FFD05464146484601F08AFDBC
:10392000294601F0F5FB012101F02FFF01F0C4FB56
:1039300032462346FEF762FE5A46054B01F0E2F896
:1039400000F0A6FE10990860002044E7022042E73C
:1039500066A64C4010B5FDF7F9FE00F0EDF808B191
:103960000A2010BD782000F07BFD10F0FF0F01D081
:10397000012010BD7820FFF7F5FE10F0FF0F01D0F9
:10398000022010BD642000F02BFD10F0FF0F01D0CD
:10399000032010BDFFF746F810F0FF0F01D0042000
:1039A00010BD1248FFF74CFEFFF7ECF910F0FF0FC7
:1039B00001D0052010BD40F27310FEF70BFF10F090
:1039C000FF0F01D0062010BD6420FFF743F910F06F
:1039D000FF0F01D0072010BD00F0C8FD012000F04E
:1039E00025FC10F0FF00F6D0092010BD4800002093
:1039F0000D494A7A42B1012A08D0022A0FD0032A7F
:103A00000FD04FF0FF307047022200E00422027016
:103A1000C97C11B11106C90D017000207047082240
:103A2000F5E71022F3E700001C0000200F494A7A56
:103A300042B1012A09D0022A11D0032A12D04FF034
:103A4000FF3070474FF4804201E041F69C720280E3
:103A5000C97C11B1C2F34E010180002070474FF4C0
:103A60008052F4E74FF40062F1E700001C000020F0
:103A70000B49097A39B1012907D002290AD0032953
:103A80000BD0002103E0FA2101E04FF4FA7101802C
:103A9000002070474FF47A71F9E74FF4FA61F6E7C6
:103AA0001C0000200A49097A41B1012908D00229E5
:103AB0000AD003290AD04FF0FF307047054900E0D3
:103AC00005490160002070470449FAE70449F8E716
:103AD0001C000020000003430000834233330342F4
:103AE000333383410C49C97A072913D2DFE801F047
:103AF0001204060A0C0E1000BC2100E062210180B5
:103B0000002070472A21FAE71421F8E70A21F6E796
:103B10000521F4E70021F2E71C000020054991F897
:103B2000242012B14FF0FF307047C9890180002076
:103B3000704700001C0000202DE9FC41464C80200D
:103B40008DF8000020686B460122817C6068007857
:103B5000FDF7D1FF4FF0FF37002875D16420FCF747
:103B60005DFD00258DF8005020686B460122817CA8
:103B700060680078FDF7BFFF002865D120686B46BC
:103B80000622817D60680078FDF728FF00285BD160
:103B90009DF805009DF80310C007400F01F00101DA
:103BA00040EA41009DF801104FF0010601F00101CB
:103BB000084304D0012831D0022810D044E0206806
:103BC0006B460122C17860680078FDF707FFD8BB1B
:103BD0009DF8000010F00F0036D004281ED0E574C8
:103BE000FF2004F80A0F4FF6FF7104F8020C04F8E6
:103BF000010C6070A180A0712072A6702676657697
:103C0000E572A572E56025616561A576E576A58317
:103C10004FF4FA6000F046FBB0B901E0E674DFE76C
:103C2000022000F061FA78B92A2000F0A3FB58B90D
:103C3000322000F0D5FB38B90020FFF793FD18B90A
:103C4000002000F085FA10B13846BDE8FC81002064
:103C500000F006FC0020F8E71C0000202DE9FF4FD3
:103C6000DFF89480064685B098F8250015460F4683
:103C70004FF0FF39B0BBAFB3002420E0301B102859
:103C800000DD102080B283463A1901469246204654
:103C900000F042FC30BB6A465946204600F0D2F89C
:103CA00000BB50465A466946FCF727FB20B16FF02F
:103CB000010009B0BDE8F08F04EB0B0084B2B44200
:103CC000DCD3280A8DF810008DF81150D8F80000C8
:103CD000444604AB817ED8F8040002220078FDF748
:103CE0000AFF08B14846E4E7012084F82500089857
:103CF000E0840020DDE700001C0000202DE9F843EF
:103D000005464FF0FF39282844D80727284C0026BD
:103D10007DB1012000F0FCFA20208DF800004FF06A
:103D20000108012D17D0052D18D88DF80180052028
:103D30001FE0002000F0ECFA8DF800608DF80170B3
:103D400020686B460222817C60680078FDF7D3FE14
:103D500000BB267529E08DF80160E8E7142D04D832
:103D600002208DF801000A2003E003208DF80100F5
:103D7000142000F0FFFA9DF801006B4607EB80105D
:103D80008DF8010020680222817C60680078FDF7D0
:103D9000B2FE10B14846BDE8F8830820A072267331
:103DA00084F814800020FFF7DDFC0020F3E700001A
:103DB0001C0000202DE9F843214C0646174694F8D4
:103DC000240089464FF0FF3890B3A07A80B3206872
:103DD0006B460222817A60680078FDF7FFFD38BBF0
:103DE000BDF8000045BAB54202D2002038701FE08D
:103DF00060684188B5EB510F11D9216800786B4696
:103E0000497C0122FDF7EAFD90B99DF80000C0064B
:103E100005D500F041F86FF00100BDE8F883206897
:103E2000F2B24B46C17A60680078FDF7D7FD08B161
:103E30004046F2E7B5FBF6F0401E38700020ECE794
:103E40001C000020F8B516000D464FF0FF371FD0BC
:103E5000104CA17AE1B1010A8DF80010C0B28DF8C2
:103E60000100411960684289914211D821680078A7
:103E70006B46097E0222FDF73EFE48B92068EAB291
:103E80003346417D60680078FDF7A8FD002800D02A
:103E90003846F8BD1C000020F8B5564C4FF0FF36F0
:103EA000A07A00287DD000258DF8005020686B4650
:103EB0000122C17B60680078FDF71DFE002870D1EB
:103EC00020686B460122417960680078FDF713FE97
:103ED000002866D120686B4601220179606800786D
:103EE000FDF709FE00285CD194F82400E0B30C2013
:103EF0008DF8000020686B46012201796068007827
:103F0000FDF7F9FD002872D13220FCF787FBC020B5
:103F10008DF80000A07AC00702D0E0208DF80000E4
:103F200020686B460122017960680078FDF7E3FDA7
:103F300000285CD1607C18B102208DF8000001E0FF
:103F40008DF8005020686B460122C17B60680078C4
:103F5000FDF7D1FD28BB8DF8005020686B4601228B
:103F60004179606800783EE0FFE704208DF80000AA
:103F700020686B460122017960680078FDF7BBFD7F
:103F800078B9A07C90B9A07AC0070FD05FF060002C
:103F90008DF8000020686B46012201796068007886
:103FA00000E024E0FDF7A7FD08BB01E04020EFE7BB
:103FB0003220FCF733FB607C18B101208DF8000043
:103FC00001E08DF8005020686B460122C17B6068DB
:103FD0000078FDF790FD50B92068064B0122417929
:103FE000606810330078FDF786FD002800D0304669
:103FF000F8BD00001C0000202DE9F047394C824636
:104000008AB094F824000F4620B1002000F00EF989
:10401000012600E0002607A8FFF72AFD06A8FFF703
:10402000E7FC09A8FFF75EFD08A8FFF777FD94F805
:104030000A9094F810800025002239465046FFF778
:104040000BF910B16D1C022DF6DB022D1AD00025E4
:10405000012203A96846FFF7FFF810B16D1C022D7D
:10406000F6DB022D0ED003A93846FEF73FF8C7B2A3
:1040700069465046FFF77AFA10F0FF0F4FF000053F
:1040800002D002E0002503E001250FB945F002054A
:10409000FF2020726072E0724FF6FF71E181A07222
:1040A000207401202073BDF81C0000F0FBF89DF87F
:1040B000180000F019F8BDF8240000F05BF9BDF815
:1040C000200000F08DF9484600F0CAF94046FFF79D
:1040D00049FB16B1012000F0A9F80AB02846BDE856
:1040E000F08700001C00002038B5184C4FF0FF3559
:1040F000A17A19B3022806D0042806D008280ED0C9
:1041000010281BD10DE0002000E008208DF80000F1
:10411000607A9DF80010B0EBD10F04D005E01020BC
:10412000F4E71820F2E7002038BD20686B46012232
:10413000C17960680078FDF7DEFC08B1284638BD1B
:104140009DF80000C0086072EDE700001C00002030
:10415000F8B5354C0546A07CA84201D10020F8BD39
:1041600031484FF0FF366B46D0E900104FF00102A6
:104170000979007835B3FDF731FC70BB9DF800007C
:104180006B4620F020008DF80000206801220179A4
:1041900060680078FDF7AFFCF8B90320FCF73EFA41
:1041A00002208DF8000094F8220078B382202BE0E2
:1041B00020686B460122017D60680078FDF79BFC5A
:1041C00058B92EE0FDF70AFC38B9A07AC0079DF86F
:1041D000000003D040F0200002E00CE020F02000BE
:1041E0008DF8000020686B46012201796068007834
:1041F000FDF781FC08B13046F8BD0320FCF70EFA4C
:1042000094F8220000B180208DF8000094F823007B
:104210000028CDD09DF8000040F030008DF800005F
:10422000C6E7A5749AE700001C00002038B51C4CB6
:1042300094F8241081421DD0002500B394F8250085
:10424000D0B1002000F0D2F90020FFF781FFE08C10
:1042500000F0C6F88DF8005060686B4601220078C7
:104260002321FDF748FC012084F8240000F0BEF96A
:10427000FFF712FE002038BD4FF0FF3038BD0020A0
:1042800000F0B4F9207C8DF8000060686B460122D4
:1042900000782321FDF72FFC84F82450E8E7000084
:1042A0001C00002038B5194C4FF0FF35A17A31B30E
:1042B000FA2809D0B0F5FA7F08D0B0F57A7F0FD090
:1042C000B0F5FA6F1BD10DE0002000E008208DF85A
:1042D0000000207A9DF80010B0EBD10F04D005E06B
:1042E0001020F4E71820F2E7002038BD20686B4664
:1042F0000122817960680078FDF7FDFB08B128464E
:1043000038BD9DF80000C0082072EDE71C000020B9
:1043100038B5174C054694F82300A84201D1002077
:1043200038BD0DB1302000E000208DF80000A07CE9
:1043300028B19DF8000040F002008DF8000094F8CC
:10434000220028B19DF8000040F080008DF80000A8
:1043500020686B460122017D60680078FDF7CBFB89
:1043600010B14FF0FF3038BD84F82350D7E700007C
:104370001C00002038B5194C4FF0FF35A17A31B33D
:10438000BC2801D3012010E0622801D302200CE0F8
:104390002A2801D3032008E0142801D3042004E0D4
:1043A0000A2801D3052000E006208DF80000E07AFD
:1043B0009DF80010884201D1002038BD20686B466E
:1043C0000122817860680078FDF795FB08B12846E6
:1043D00038BD9DF80000E072EEE700001C000020F0
:1043E000F8B51E4D04464FF0FF37A87A48B395F84C
:1043F000240030BB287D4FF47A7648B164B1282C74
:1044000003D8E0B2FFF77AFC26E00020FFF776FC45
:10441000042C05D2042406E00020FFF76FFCF9E726
:10442000B44200D93446B6FBF4F0401E8DF80000CB
:1044300028686B460122417868680078FDF75BFBCD
:1044400008B13846F8BD9DF80000401CB6FBF0F0FE
:10445000E8814008FFF78EFF0020F8BD1C00002017
:10446000F8B5054610F0700F4FF0000601D001209E
:1044700004E015B18DF8006002E040208DF80000E6
:10448000244C6B4601222068817C60680078FDF72F
:1044900032FB4FF0FF3760BB9DF8000020F040007A
:1044A00020738DF80060680602D404208DF80000A7
:1044B000A80605D49DF8000040F002008DF8000029
:1044C000E80605D49DF8000040F001008DF80000DA
:1044D000280705D49DF8000040F038008DF8000052
:1044E00020686B460122C17C60680078FDF703FB01
:1044F00010B1A6723846F8BD25B1082D02D00020B3
:10450000FFF706FFA57226753220FCF787F800201A
:10451000F8BD00001C000020F8B516000D464FF055
:10452000FF371FD0104CA17AE1B1010A8DF80010BD
:10453000C0B28DF80100411960684289914211D8DA
:10454000216800786B46097E0222FDF7D4FA48B94B
:104550002068EAB23346417D60680078FDF7CBFA07
:10456000002800D03846F8BD1C00002010B588B0E7
:10457000694604A8FFF740FD032802D0012008B0D7
:1045800010BD07A8FFF78EFA049800F027FF0799DF
:104590000C4600F04FFF00F0E5FE0490059800F097
:1045A0001DFF214600F046FF00F0DCFE0590069856
:1045B00000F014FF214600F03DFF00F0D3FE06900E
:1045C00004A8FEF779FB03A8FFF730FABDF80C004A
:1045D000009941430091019941430191029941435E
:1045E00068460291FEF7CAFA0020C8E7F8B5144CF5
:1045F0000146224694F82460D2E9000200235D1EA1
:1046000056B179B1022111E0C17B10786B460122CD
:10461000FDF771FA68B90EE0A67A56B111B1617C66
:1046200061B902E08DF80030EEE701218DF800104D
:10463000EAE72846F8BD9DF8000060740020F8BD48
:104640001C0000202DE9F04106460F4600F064FBF7
:10465000041E0D4618BF0120284320F00040C0F181
:104660007F6000F1E040C00F0ED0301C18BF012069
:10467000384320F00040C0F17F6000F1E040C00FFF
:1046800004BF0120FBF713FF20462946BDE8F08157
:1046900021F00042A2F16052B2F5801F01F0004308
:1046A00028BFD2F17F6C0BD95FEA001C43EAC2023B
:1046B00042EB507018BF704728BF20F001007047D0
:1046C000B2F5801FBCBF184670474FEA410C1CF57D
:1046D000001F02D2084600F074BF70B500F0BCFAAB
:1046E00000000089FFF7F6BF4FF00040A0F5800002
:1046F0007047000010B591EA030F48BF83F00043F4
:1047000000F1F883841A71EB030C05D2121943EB04
:104710000C03001B61EB0C01DFF824E14FEA11549C
:10472000A4EB135C1EEA430F18BF9EEA445F73D0EC
:1047300023EA0E03DCF1200E21EA045143F4801336
:1047400032D322FA0CFE10EB0E0023FA0CFE41EBE2
:104750000E01CCF1200E03FA0EFE10EB0E0051F10B
:104760000001B1F5801FCCF1200E32D201EB0451D3
:1047700012FA0EF2BDE8104058BF7047401C38BF17
:104780005FEA420218BF7047002814BF20F0010002
:1047900041F100014FEA410313F5001F38BF704794
:1047A000A1F1C04100F0A6BA012A43EB0302ACF12B
:1047B000200CDCF11F0E32BF4FF0000E23FA0CF379
:1047C00010EB030041EB0451B4EB115FD0D0A1EB2F
:1047D000045101F5801149085FEA300001EB0451F2
:1047E0000ED350F1000038BF12FA0EFE08D1BDE81A
:1047F0001040C9E7401C38BF5FEA4202CAD1C3E794
:10480000BDE810404FEA410313F5001F38BF704761
:10481000A1F1C04100F06EBA9EEA445F08D011EAEF
:104820005E0FBDE8104004BF01F00041002070475A
:10483000BDE8104070B500F00FFA00BF64FBBE3E4B
:104840000000E0FF02494FF0000000F03EBF00BF53
:104850000000F87F2DE9C04130B4DFF8A0C23CEA87
:10486000111418BF3CEA131400F0EC8081EA030530
:104870001CEA111444EAD57418BF1CEA131500F0A1
:10488000C780A4EB05044FF0004545EAC12145EA85
:10489000C32341EA505143EA525304F17F749942D1
:1048A00004F500344FEAC0204FEAC22208BF90420C
:1048B00000F09C804FEA13650FF24016765D4FEAD8
:1048C000134506FB05F7C7F1807706FB07F74FEAAC
:1048D000D737A7FB03687642C8F58038A7FB06CE1A
:1048E00038BFA8F1010807FB08E64FF0000EA6FB51
:1048F000028CE6FB03CEDCF1000CCEF1004E38BF9B
:10490000AEF1010EA6FB0C584FF000074FF000056A
:10491000E6FB0E87A1FB08C6A0FB07CE16EB0E0632
:1049200045F10005E1FB076515F1E04E7EBFA4F5FA
:1049300080345FEA46066D4116F1800745F10005B7
:104940004FEA17274FEA066647EA0567A6F1DE46F3
:10495000B6F1805F4FEA15251FD9384624F0010CC7
:1049600005EBC471BCF1FE6F01EB0C1102D8F0BC79
:10497000BDE8008124425CBF01F5801E9EEAC47F31
:1049800002D4F0BCBDE80081244238D4F0BCA1F1CF
:10499000C041BDE8004100F0ADB94FEAD22242EA81
:1049A00043524FEAD323A7FB02864FEAD02040EAC6
:1049B000415007FB03661EEA0E0F4FEAD12105FBAB
:1049C000026658BFA6EB0056B6EB00564FEA520EF1
:1049D0004EEAC37E18EB0E0E56EB530EBDD518EB08
:1049E00002085E417F1C55F10005B6E74FF48015C3
:1049F0004FF000074FF000064FF00008ADE7F0BCA5
:104A00004FF0000001F1C04101F00041BDE800811C
:104A100011EA0C1F0CEA131500D00CE013EA0C1F6E
:104A200000F025804FF00000F0BC81EA030101F0A6
:104A30000041BDE80081F0BCBDE8004181EA03010E
:104A400000F058B9F0BCBDE8004170B500F004F9C1
:104A5000097EFC3E00F007B881EA03014FF0000038
:104A600001F00041704781EA030100F043B9F0BC56
:104A7000BDE800414FF0000021497047FFFDFBF900
:104A8000F7F5F4F2F0EEEDEBE9E8E6E4E3E1E0DE81
:104A9000DDDBDAD8D7D5D4D3D1D0CFCDCCCBCAC8F3
:104AA000C7C6C5C4C2C1C0BFBEBDBCBBBAB9B8B71A
:104AB000B6B5B4B3B2B1B0AFAEADACABAAA9A8A80D
:104AC000A7A6A5A4A3A3A2A1A09F9F9E9D9C9C9BDB
:104AD0009A99999897979695959493939291919086
:104AE0008F8F8E8E8D8C8C8B8B8A89898888878717
:104AF0008685858484838382828181800000FF078C
:104B00000000F87FDFF848C170B51CEA111E1EBF17
:104B10001CEA13159EEA0C0F95EA0C0F00F06F804B
:104B200081EA030423EA4C134EEAD47E21EA4C11B5
:104B300041F4801143F48013AE44A1FB024CA0FB6E
:104B40000365AEF17F7E361955EB0C05A1FB034CD6
:104B50004CF10003A0FB021C16EB0C06654153F15F
:104B60000003094218BF46F0010613F4007F0BD181
:104B70004FEA03314FEA0530340341EA155140EA68
:104B800016506FF003020AE04FEAC3214FEAC52036
:104B9000F40241EA555140EA56506FF0020202EB2E
:104BA0002E4201EB025585EACE710AD05FEA440C31
:104BB00018BF24F0004450F1000041F1000120EA48
:104BC000D47040F2FE7C624500D270BDA84214BF92
:104BD0004FF080444FF04044002E08BF0024BEF147
:104BE000806FA8BFA1F1C041BDE8704080F2828013
:104BF0004FF0000001F1C04101F0004170479EEA12
:104C00000C0F0CEA131518BF95EA0C0F06D04FF0E5
:104C1000000081EA030E0EF0004170BD00F01CF8A8
:104C20008900013E00F007B800F009B84FEA430CD4
:104C30005FEA5C5C08D081EA030100F05BB84FEAF0
:104C4000410C5FEA5C5CF6D14FF00000014970470F
:104C50000000FF070000F87F0EF1020E2EF0030E99
:104C60005EF8046B364205D4012A43EB030515F5C3
:104C7000001F12D8012841EB010C1CF5001F0CD8B5
:104C80000ED14FEAD17C15F5001F0CEB4C0C0CF14A
:104C9000020C08BF4CEBD37C04E04FF0080C01E0A1
:104CA0004FEAD37C0CEB4C0526FA05F606F0070616
:104CB000B6F1040C06D20EEB860CBDE870404CF049
:104CC000010C6047DFE80CF0090B02024FF00041D5
:104CD0004FF00000A1F5002170BD194610460128D3
:104CE00051EB010418BFD4F5001484BF002001F07B
:104CF000004170BD0808A0F500114FEA310170476E
:104D000091EA030F10B581F000413FF5FBAC83F051
:104D1000004300F0EFB800002DE9F04101F5801CE0
:104D2000BCF5001FC0F2C3804FEA115C21EA0C51B0
:104D30000CF1FD0C41F480115FEA5C0C0CF5C07CB9
:104D400001D3400049413DA4890241EA90518702C4
:104D50008E0E0A0CA45D04FB04F602FB06F6C6F1F7
:104D60004046A4FB0662F60D46EA422606FB06F420
:104D7000A4FB01235242C3F1404338BF5B1EA6FB94
:104D800002420024E6FB0324D20B42EA4446A6FB7F
:104D90000623A1FB02E2A3FB07E4A4184FF00002E4
:104DA00052F10002E3FB01426442C2F1404E38BFBF
:104DB000AEF1010EA6FB04234FF00002E6FB0E321B
:104DC000A2FB03464FF00004B61954F10004E2FBC5
:104DD0000264A1FB06E6A4FB07E816EB08064FF009
:104DE000000858F10008E4FB01687642C8F1405819
:104DF00038BFA8F10108A2FB06E4A3FB08E52D19C2
:104E00004FF0000454F10004E2FB0854A1FB05E656
:104E1000A7FB04E818EB06084FF0000656F1000661
:104E2000E1FB048618F1200556F10006A809A8F157
:104E30001B08B10908F03F08B8F10A0F40EA866084
:104E40001CD901EB0C51BDE8F08100BFFCF5EEE888
:104E5000E2DDD8D3CFCBC7C3C0BDB9B6B4B1AEAC19
:104E6000A9A7A5A3A19F9D9B9A9896959392908F91
:104E70008D8C8B898887868584838281A0FB0068DE
:104E800000FB01F208EB4208B8EB872807D534187D
:104E900058EB0104D5D5401C51F10001D1E7341A7B
:104EA00078EB0104CDD4401E71F10001C9E75FEA3F
:104EB0004C0C5FEA9C5C0DD105D34FF0000001F073
:104EC0000041BDE8F081BDE8F04170B5FFF7C4FED8
:104ED0006DDBFFBEBDE8F0414FF0000000497047B8
:104EE0000000F87F10B591EA030F48BF83F000433C
:104EF0003FF508AC841A71EB030C07D212198CF041
:104F0000004C43EB0C03001B61EB0C01DFF8A4E148
:104F10004FEA1154A4EB135C1EEA430F18BF9EEA3C
:104F2000445F00F0B08023EA6E03524221EA04514C
:104F3000C3EB6E0338BF5B1EDCF1200E25D322FAD3
:104F40000CFE10EB0E0043FA0CFE41EB0E01CCF10F
:104F5000200E03FA0EFE10EB0E0051F10001CCF111
:104F6000200E29D412FA0EF201EB0451BDE81040D4
:104F700058BF7047401C1CBFB2F1004F704700285B
:104F80000CBF491C20F00100704712EB020E43EBEE
:104F9000030218BF4FF0010E4EEA4202ACF1200CA2
:104FA000DCF11E0E54D943FA0CFE10EB0E0051F149
:104FB000FF31CCF11E0ED5D50EF1010E12FA0EFE08
:104FC000404141EB010101EB445C5FEA5C5C10D9BC
:104FD00010EBDE7001EB045138BFBEF1004FBDE8AD
:104FE000104018BF704700280CBF491C20F001007A
:104FF000704730D24FEAD42C11F5001124F400642C
:105000001BD0B1FA81F20B3AA41AA41ED2F12003EC
:10501000914030FA03F31943904001EBCC71002C1E
:1050200001EB0451BDE81040A8BF704701F1C04139
:105030004FF0000001F000417047B0FA80F310FA21
:1050400003F100D110BDE41A173C4805C90AE4E792
:1050500001EB045110BD491001EB0451BDE81040B3
:105060004FEA300002E04FF0000170474A0008BFED
:105070000042F8D0B2F5001F28BF704701F0004190
:105080004FF0000070479EEA445F07D011EA5E0FC0
:10509000BDE8104004BF002100207047BDE810406B
:1050A00070B5FFF7D9FD00BF40DFF63E83F0004149
:1050B000104670470000E0FF43004FEAD30C4FEA70
:1050C0003C0C43401FBF40070CF1605113F0FE4FF2
:1050D00070471CF0006F03D100200CF000417047B6
:1050E0000CF0004343EA507010B540EACC0000F0E9
:1050F00022FA00BF000000924FEA0001FFF7FABD5C
:105100004FF000414FF00000A1F500217047000072
:1051100090EA010F48BF81F0004100F16882421A15
:105120003CBF801A89184FEAD0524FF07F4C1CEADE
:10513000410FA2EBD15318BF9CEA026F00F03B80F5
:105140004FF0004C4CEA00204CEA012121FA03FC0C
:1051500010EB0C0C1ED202F1FF325FEA1C2040EB78
:10516000C25038BF70471CF07F0F4FEA400C18BF89
:10517000BCF17F4F38BF7047C3F12003994008BF8F
:1051800020F00100BCF17F4F38BF7047A0F1C04054
:1051900000F017BA4FEA3C00000A40EBC25028BFAB
:1051A0001CF0FF0F4FEA400CE6D018BFBCF17F4F58
:1051B00038BF7047EAE79CEA026F05D010EA5C0F3F
:1051C00008BF00F00040704710B500F0B4F900BF10
:1051D00064FBBE3E014800F078BA00BF0000C07F0B
:1051E0004FF47F0C1CEAD0121EBF1CEAD11392EAC6
:1051F0000C0F93EA0C0F00F0858090EA010F48BF76
:1052000042F4807240F4000C41F400002CF07F4125
:1052100020F07F4000B58142A2EB03020FF2081C90
:10522000ACEB504EC0F100009EF800E04FEA4E0E8D
:1052300000FB0EFC38BF49004FEA2C1C02F5FA02B5
:105240000CFB0EF34FEACE1E4FEA112C4FEAC121A0
:105250000EEB635E42EB22420EFB0CFC4FEA1C534A
:1052600000FB03114FEA112C4FEA01310EFB0CFC3D
:105270004FEADC4C00FB0C11C14228BF09184CEB73
:1052800003335DF804EB10EB410143EBC250B2F580
:105290007C0F38BF704729D512F0F00F1CBF00F10A
:1052A000C04000F00040704700818283848586877B
:1052B00088898B8C8D8E8F919293959697999A9CD5
:1052C0009D9FA0A2A3A5A7A8AAACAEB0B2B3B5B744
:1052D000B9BCBEC0C2C5C7C9CCCED1D4D7D9DCDF1A
:1052E000E2E6E9ECF0F3F7FAFE0000004FEA400CCA
:1052F0000CF1807CBCF17E4F28BF7047B0F1C040FC
:1053000000F05FB990EA010F0CEAD11348BF42F4F4
:105310008072624538BF634507D213F47F0F16D001
:1053200080EA010000F00040704710B500F003F97A
:10533000097EFC3E00F005B880EA010000F0004064
:10534000704780EA010000F0004000F03AB912F422
:105350007F0F04BF0248704780EA010000F031B9B6
:105360000000C07F41000B0ED3F19E0208D950F41B
:1053700000034FEA032323FA02F048BF404270477C
:1053800010B500F0D8F800BF499224800020704783
:105390006FF0004282EA200070470000C10DD1F199
:1053A0009E0206DB4FEA002343F0004323FA02F09B
:1053B0007047004207D54FEA4001B1F1FE4F02D2DB
:1053C0004FF00000704710B500F0B5F84992248006
:1053D000002070476FEA20007047000010F0004185
:1053E00048BF4042B0FA80F310FA03F2C3F19D03C4
:1053F0000BD051EAC35101EB1220530638BF70475E
:1054000000F1010008BF20F001007047B0FA80F3FE
:1054100010FA03F2C3F19D030AD0D90501EB122063
:10542000530638BF704700F1010008BF20F00100AB
:10543000704700004FF47F0C1CEAD0121EBF1CEA1C
:10544000D11392EA0C0F93EA0C0F00F0478090EA18
:10545000010F48BF42F480724FF0004C4CEA00202C
:105460004CEA012102EB0302A0FB0113A2F50002AA
:10547000002918BF43F001035B0028BF4FEA330344
:1054800042EB22425FEA132C4CEBC2502EBFBCEB26
:10549000436FB2F57C0F70474FEA036CBCF1004FCD
:1054A00008BF20F00100B2F57C0F38BF70470BD564
:1054B00082F0FF0212F5803FC8BF704700F1C04084
:1054C000D8BF00F00040704700F5000C5FEA4C0CBC
:1054D00048BF7047B0F1C04000F073B890EA010FC8
:1054E0000CEAD11348BF42F48072624538BF63456D
:1054F00004D280EA010000F00040704710B500F0CF
:105500001AF800BF8900013E00F007B800F009B8A2
:105510005FEA410C5FEA1C6C08D080EA010000F0F1
:1055200050B85FEA400C5FEA1C6CF6D14FF00040C7
:10553000A0F5800070470EF1020E2EF0030E5EF80B
:10554000044B244204D44FEA4102B2F17F4F11D8F8
:105550004FEA4003B3F17F4F0CD80ED14FEAD07C15
:10556000B2F17F4F0CEB4C0C0CF1020C08BF4CEB72
:10557000D17C04E04FF0080C01E04FEAD17C0CEB49
:105580004C0324FA03F404F00704B4F1040C06D22B
:105590000EEB840CBDE810404CF0010C6047DFE8D6
:1055A0000CF0070802024FF00040A0F5800010BD8B
:1055B0000846420018BFD2F1807288BF00F0004058
:1055C00010BDFF2141EAD050C005704780F0004077
:1055D00090EA010F7FF5A3AD81F0004100F007B81C
:1055E00090EA010F48BF81F000413FF598AD421AA3
:1055F00004D882F00042A0EB020011444FEAD052DE
:105600004FF07F4C1CEA410FA2EBD15318BF9CEA2C
:10561000026F4AD04FF0004C4CEA00204CEA0121C6
:1056200021FA03FCB0EB0C0C0FD412F0FE0F36D0B5
:105630005FEA4C001DD5001240EBC25038BF7047E6
:105640001CF03F0F18BF70470BE0A2F101025FEAA8
:105650001C2040EBC25038BF70471CF07F0F18BFB2
:105660007047C3F12003994014BF401E20F0010091
:10567000704780084FEA122308BF7047B0FA80FCD9
:10568000A2EB0C02CCF1280C60FA0CF093EA122F7A
:1056900004BF00EBC25070474FEAC3707047130A53
:1056A0005FEADC1008BF7047F6E79CEA026F04D09F
:1056B00010EA5C0F08BF0020704710B5FFF73BFFF2
:1056C00040DFF63E81F0004070470CF00F03092BDD
:1056D00008BF082000F07F800A2B0BD0082B18BFD2
:1056E000704708BF1CF0400F0AD04FF000004FF089
:1056F000000170471CF0400F18BF4FF0004070478A
:105700001CF0100F08D020F0704300F07F4242EAF6
:10571000D3014FEA4370704700F0604021F07F42B0
:1057200042EA000201F07F4040EA727070474FF099
:10573000FF0C4CF4E06C1CEA11531CBF9CEA030CF8
:105740009445C2BFDA4201EB02517047002B0DD0E5
:10575000BCF1000F0FD0002A01F00041A4BF41F0BE
:10576000E04141F07F614FF00000704701F00041DF
:105770004FF00000704750EA01334FF09B0C18BF08
:105780004CF0806C7FF45EA870474FF0FF0212EA85
:10579000D0521CBF92F0FF038B42C2BFD14200EB3C
:1057A000C1507047002A0AD0002B0BD0002900F00E
:1057B0000040A4BF40F0FE4040F40000704700F0FD
:1057C0000040704743024FF00B0C18BF4CF0806C48
:1057D0007FF400AD70471CF4801F11D01CF4E02F43
:1057E00003D06FEACC31490070474FF04050EFF3DF
:1057F000008222F0704242EA000282F30088704781
:105800004FF0000070470000000000000000002F73
:10581000000000000700070000147F147F1400241C
:105820002A7F2A1200626408132300364955225049
:1058300000000503000000001C224100000041227E
:105840001C000014083E08140008083E0808000068
:1058500000A0600000080808080800006060000060
:10586000002010080402003E5149453E0000427FDE
:105870004000004261514946002141454B3100182A
:1058800014127F10002745454539003C4A494930EC
:1058900000017109050300364949493600064949A6
:1058A000291E0000363600000000563600000008B1
:1058B000142241000014141414140000412214088E
:1058C00000020151090600324959513E007C121173
:1058D000127C007F49494936003E41414122007F08
:1058E0004141221C007F49494941007F09090901C2
:1058F000003E4149497A007F0808087F0000417F47
:105900004100002040413F01007F08142241007FF8
:1059100040404040007F020C027F007F0408107F5F
:10592000003E4141413E007F09090906003E4151C8
:10593000215E007F09192946004649494931000185
:10594000017F0101003F4040403F001F2040201FD9
:10595000003F4038403F006314081463000708709C
:10596000080700615149454300007F41410000554F
:105970002A552A55000041417F000004020102041B
:105980000040404040400000010204000020545408
:105990005478007F48444438003844444420003858
:1059A0004444487F00385454541800087E090102CA
:1059B0000018A4A4A47C007F080404780000447D9F
:1059C0004000004080847D00007F102844000000DB
:1059D000417F4000007C04180478007C08040478AF
:1059E00000384444443800FC24242418001824249B
:1059F00018FC007C08040408004854545420000497
:105A00003F444020003C4040207C001C2040201CA3
:105A1000003C4030403C004428102844001CA0A01A
:105A2000A07C004464544C44141414141414000056
:105A30000000000000000000000000000000000066
:105A400000F80000000000000033300000000010EB
:105A50000C06100C0600000000000000000040C012
:105A60007840C0784000043F04043F040400007004
:105A700088FC08300000001820FF211E0000F008FC
:105A8000F000E018000000211C031E211E0000F0A1
:105A90000888700000001E212324192721101016E9
:105AA0000E000000000000000000000000000000E8
:105AB00000E0180402000000000718204000000267
:105AC0000418E000000000402018070000004040DB
:105AD00080F0804040000202010F0102020000003D
